:0400000007EF00F016
:0A0008006982A0ED09F032EF16F056
:10100000003738392F3435362A3132332D23303DED
:101010002B001A0E286E000E296EC2EC18F067C065
:101020003EF0200E306E030ECDEC16F0196E67C048
:1010300028F0296A000E2B6E0A0E2A6E44EC11F07D
:101040002850306E000ECDEC16F0196E000E686E52
:101050008A0E326E000E336E680E346E000E356EE0
:101060000FEC0EF0196E3D0E6818D8A43AEF08F098
:101070003CEF08F03EEF08F09FEF09F06850D8B45D
:1010800044EF08F046EF08F028EF08F02F0E6864F0
:101090004CEF08F04EEF08F028EF08F0330E6860D0
:1010A00054EF08F056EF08F028EF08F06850D00F22
:1010B000676E67C030F0000ECDEC16F0196E030EAF
:1010C0003D6E8A0E3C6E560EE82EFED73C2EFCD7A7
:1010D0003D2EFAD7100E306E030ECDEC16F0196EC1
:1010E0003EC028F0296A000E2B6E0A0E2A6E58ECBC
:1010F00012F02850306E000ECDEC16F0196E000E76
:10110000686E8A0E326E000E336E680E346E000EFC
:10111000356E0FEC0EF0196E3D0E6818D8A493EFE3
:1011200008F095EF08F099EF08F03EC067F09FEFE8
:1011300009F06850D8B49FEF08F0A1EF08F081EFF4
:1011400008F02F0E6864A7EF08F0A9EF08F081EF10
:1011500008F03A0E6860AFEF08F0B1EF08F081EFE9
:1011600008F067500A0DF3506824D00F676E67C00F
:1011700028F0296A000E2B6E0A0E2A6E58EC12F027
:101180002850306E000ECDEC16F0196E030E3D6E39
:101190008A0E3C6E560EE82EFED73C2EFCD73D2E16
:1011A000FAD7080E306E030ECDEC16F0196E66C03D
:1011B00028F0296A000E2B6E0A0E2A6E44EC11F0FC
:1011C0002850306E000ECDEC16F0196E66C03EF061
:1011D000000E686E8A0E326E000E336E680E346E2C
:1011E000000E356E0FEC0EF0196E3D0E6818D8A487
:1011F000FCEF08F0FEEF08F000EF09F09FEF09F0B8
:101200006850D8B406EF09F008EF09F0EAEF08F0EB
:101210002F0E68640EEF09F010EF09F0EAEF08F006
:10122000360E686016EF09F018EF09F0EAEF08F0E3
:101230006850D00F666E66C030F0020ECDEC16F02E
:10124000196E030E3D6E8A0E3C6E560EE82EFED7CA
:101250003C2EFCD73D2EFAD7040E306E030ECDEC9B
:1012600016F0196E3EC028F0296A000E2B6E0A0E89
:101270002A6E58EC12F02850306E000ECDEC16F0AD
:10128000196E000E686E8A0E326E000E336E680E96
:10129000346E000E356E0FEC0EF0196E3D0E6818B0
:1012A000D8A455EF09F057EF09F05BEF09F03EC005
:1012B00066F09FEF09F06850D8B461EF09F063EF72
:1012C00009F043EF09F02F0E686469EF09F06BEF46
:1012D00009F043EF09F03A0E686071EF09F073EF1F
:1012E00009F043EF09F066500A0DF3506824D00F5F
:1012F000666E66C028F0296A000E2B6E0A0E2A6EF2
:1013000058EC12F02850306E000ECDEC16F0196E2D
:10131000000E306E020ECDEC16F0196E030E3D6E0F
:101320008A0E3C6E560EE82EFED73C2EFCD73D2E84
:10133000FAD71A0E2A6E000E2B6EE1EC10F0120096
:101340000600FACF3FF0FBCF40F0D9CF41F0DACF23
:1013500042F0F3CF43F0F4CF44F0F6CF45F0F7CFAF
:1013600046F0F8CF47F0F5CF48F0F2A8BAEF09F011
:10137000BCEF09F0C5EF09F0F2A2C1EF09F0C3EF2D
:1013800009F0C5EF09F0F2EC17F0F0A6CAEF09F08A
:10139000CCEF09F0D5EF09F0F0A0D1EF09F0D3EFD1
:1013A00009F0D5EF09F0DBEC17F0F0A8DAEF09F05F
:1013B000DCEF09F0E5EF09F0F0A2E1EF09F0E3EF6F
:1013C00009F0E5EF09F0C4EC17F0F2A6EAEF09F036
:1013D000ECEF09F007EF0AF0F2A0F1EF09F0F3EFFC
:1013E00009F007EF0AF081A8F8EF09F0FAEF09F029
:1013F00007EF0AF01504D8A400EF0AF002EF0AF094
:1014000007EF0AF0000E156E010EABEC17F0F2A616
:101410000CEF0AF00EEF0AF029EF0AF0F2A013EF3A
:101420000AF015EF0AF029EF0AF081B81AEF0AF076
:101430001CEF0AF029EF0AF01550D8A422EF0AF0A9
:1014400024EF0AF029EF0AF0010E156E000EABEC46
:1014500017F0F2A62EEF0AF030EF0AF04BEF0AF089
:10146000F2A035EF0AF037EF0AF04BEF0AF081AA4D
:101470003CEF0AF03EEF0AF04BEF0AF01604D8A456
:1014800044EF0AF046EF0AF04BEF0AF0000E166E3A
:10149000010E92EC17F0F2A650EF0AF052EF0AF0AC
:1014A0006DEF0AF0F2A057EF0AF059EF0AF06DEF76
:1014B0000AF081BA5EEF0AF060EF0AF06DEF0AF011
:1014C0001650D8A466EF0AF068EF0AF06DEF0AF044
:1014D000010E166E000E92EC17F0F2A672EF0AF0F3
:1014E00074EF0AF08FEF0AF0F2A079EF0AF07BEFC9
:1014F0000AF08FEF0AF081AC80EF0AF082EF0AF079
:101500008FEF0AF01704D8A488EF0AF08AEF0AF0E8
:101510008FEF0AF0000E176E010E79EC17F0F2A6AD
:1015200094EF0AF096EF0AF0B1EF0AF0F2A09BEF09
:101530000AF09DEF0AF0B1EF0AF081BCA2EF0AF0C9
:10154000A4EF0AF0B1EF0AF01750D8A4AAEF0AF0FE
:10155000ACEF0AF0B1EF0AF0010E176E000E79EC55
:1015600017F0F2A6B6EF0AF0B8EF0AF0D3EF0AF0E0
:10157000F2A0BDEF0AF0BFEF0AF0D3EF0AF081AEA0
:10158000C4EF0AF0C6EF0AF0D3EF0AF01804D8A4AB
:10159000CCEF0AF0CEEF0AF0D3EF0AF0000E186E8F
:1015A000010E60EC17F0F2A6D8EF0AF0DAEF0AF0BD
:1015B000F5EF0AF0F2A0DFEF0AF0E1EF0AF0F5EF45
:1015C0000AF081BEE6EF0AF0E8EF0AF0F5EF0AF064
:1015D0001850D8A4EEEF0AF0F0EF0AF0F5EF0AF099
:1015E000010E186E000E60EC17F09DA0FAEF0AF0E5
:1015F000FCEF0AF005EF0BF09EA001EF0BF003EFFC
:101600000BF005EF0BF045EC17F0A0A20AEF0BF082
:101610000CEF0BF015EF0BF0A1A211EF0BF013EF95
:101620000BF015EF0BF02AEC17F048C0F5FF47C0A0
:10163000F8FF46C0F7FF45C0F6FF44C0F4FF43C0C3
:10164000F3FF42C0DAFF41C0D9FF40C0FBFF3FC0FB
:10165000FAFF699211000001BB6F020E0001B36F27
:10166000030EA8EC16F0196EB9C0ABF00001AC6B1C
:10167000000EAE6F0A0EAD6F7EEC10F00001AB51A4
:10168000B36F000EA8EC16F0196E080E0001BA6FC9
:10169000C90EE82EFED7BA2FFCD700D0010E0001EC
:1016A000B36F030EA8EC16F0196EB9C0ABF00001D1
:1016B000AC6B000EAE6F0A0EAD6FFFEC11F00001C7
:1016C000AB51B36F000EA8EC16F0196E080E0001B6
:1016D000BA6FC90EE82EFED7BA2FFCD700D0080E7D
:1016E0000001B36F030EA8EC16F0196EB8C0ABF092
:1016F0000001AC6B000EAE6F0A0EAD6F7EEC10F009
:101700000001AB51B36F000EA8EC16F0196E080E75
:101710000001BA6FC90EE82EFED7BA2FFCD700D051
:10172000040E0001B36F030EA8EC16F0196EB8C0DA
:10173000ABF00001AC6B000EAE6F0A0EAD6FFFECAC
:1017400011F00001AB51B36F000EA8EC16F0196E4A
:10175000080E0001BA6FC90EE82EFED7BA2FFCD7CB
:1017600000D0200E0001B36F030EA8EC16F0196E26
:10177000BBC0ABF00001AC6B000EAE6F0A0EAD6FDC
:101780007EEC10F00001AB51B36F000EA8EC16F028
:10179000196E080E0001BA6FC90EE82EFED7BA2FD7
:1017A000FCD700D0100E0001B36F030EA8EC16F0AA
:1017B000196EBBC0ABF00001AC6B000EAE6F0A0E31
:1017C000AD6FFFEC11F00001AB51B36F000EA8EC50
:1017D00016F0196E080E0001BA6FC90EE82EFED77A
:1017E000BA2FFCD700D01200010E0001B46FAB512C
:1017F000AC11D8B4FEEF0BF000EF0CF020EF0CF0C2
:10180000ABC0D9FFACC0DAFFDF30E832E832070BFB
:10181000AE6F080EAE610FEF0CF011EF0CF020EF81
:101820000CF0ABC0D9FFACC0DAFFDF50070BAE6FD6
:10183000040EAE651EEF0CF020EF0CF024EF0CF060
:10184000000EB46FA7EF0CF0ABC0D9FFACC0DAFF4D
:10185000DFAC2DEF0CF02FEF0CF092EF0CF020EF3F
:101860000CF0ABC0D9FFACC0DAFFDF30E832E832B1
:10187000070BAE6F010EAF6FAE2B41EF0CF0D8909F
:10188000AF37AE2F3FEF0CF00001AF51FF0AB06F42
:10189000ABC0D9FFACC0DAFFDF50070BB16FB1515D
:1018A000020D010EF324D96E000EF420DA6EDECFA5
:1018B000B2F0DDCFB3F0B2C0D9FFB3C0DAFFB051A0
:1018C000DF16A7EF0CF0ABC0D9FFACC0DAFFDF30FA
:1018D000E832E832070BAE6F010EAF6FAE2B73EF3D
:1018E0000CF0D890AF37AE2F71EF0CF0ABC0D9FF32
:1018F000ACC0DAFFDF50070B0001B06FB051020D32
:10190000010EF324D96E000EF420DA6EDECFB1F0B2
:10191000DDCFB2F0B1C0D9FFB2C0DAFFAF51DF12F4
:10192000A7EF0CF0AD51AE6FAF6BAF51000AD8B45A
:101930009CEF0CF020EF0CF0AE51000AD8B431EF60
:101940000CF0010AD8B463EF0CF020EF0CF0B451A6
:101950001200010E0001B36FAB51AC11D8B4B3EF5C
:101960000CF0B5EF0CF0D5EF0CF0ABC0D9FFACC06C
:10197000DAFFDF30E832E832070BAD6F080EAD61F9
:10198000C4EF0CF0C6EF0CF0D5EF0CF0ABC0D9FFF4
:10199000ACC0DAFFDF50070BAD6F040EAD65D3EFBF
:1019A0000CF0D5EF0CF03AEF0DF0000EB36F5BEFDB
:1019B0000DF0ABC0D9FFACC0DAFFDF30E832E8325F
:1019C000070BAD6F010EAE6FAD2BE9EF0CF0D890A9
:1019D000AE37AD2FE7EF0CF00001AE51FF0AAF6F4D
:1019E000ABC0D9FFACC0DAFFDF50070BB06FB0510E
:1019F000020D0B0EF324D96E000EF420DA6EDECF4A
:101A0000B1F0DDCFB2F0B1C0D9FFB2C0DAFFAF5153
:101A1000DF165BEF0DF0ABC0D9FFACC0DAFFDF30F3
:101A2000E832E832070BAD6F010EAE6FAD2B1BEF46
:101A30000DF0D890AE37AD2F19EF0DF0ABC0D9FF38
:101A4000ACC0DAFFDF50070B0001AF6FAF51020DE2
:101A50000B0EF324D96E000EF420DA6EDECFB0F058
:101A6000DDCFB1F0B0C0D9FFB1C0DAFFAE51DF12A7
:101A70005BEF0DF0ABC0D9FFACC0DAFFDFBC43EFCA
:101A80000DF046EF0DF0010E47EF0DF0000EAD6FBB
:101A9000AE6BAE51000AD8B450EF0DF0D5EF0CF09C
:101AA000AD51000AD8B4D9EF0CF0010AD8B40BEF4D
:101AB0000DF0D5EF0CF0B3511200010E316E28502D
:101AC0002910D8B466EF0DF068EF0DF088EF0DF037
:101AD00028C0D9FF29C0DAFFDF30E832E832070B2F
:101AE0002B6E080E2B6077EF0DF079EF0DF088EF7D
:101AF0000DF028C0D9FF29C0DAFFDF50070B2B6E8D
:101B0000040E2B6486EF0DF088EF0DF08CEF0DF0D6
:101B1000000E316E0DEF0EF028C0D9FF29C0DAFF9C
:101B2000DFAC95EF0DF097EF0DF0F8EF0DF088EFCB
:101B30000DF028C0D9FF29C0DAFFDF30E832E832E3
:101B4000070B2B6E010E2C6E2B2AA9EF0DF0D890EF
:101B50002C362B2EA7EF0DF02C50FF0A2D6E28C02F
:101B6000D9FF29C0DAFFDF50070B2E6E2E50020D71
:101B7000010EF324D96E000EF420DA6EDECF2FF0C2
:101B8000DDCF30F02FC0D9FF30C0DAFF2D50DF1687
:101B90000DEF0EF028C0D9FF29C0DAFFDF30E832A0
:101BA000E832070B2B6E010E2C6E2B2ADAEF0DF0AC
:101BB000D8902C362B2ED8EF0DF028C0D9FF29C095
:101BC000DAFFDF50070B2D6E2D50020D010EF324AE
:101BD000D96E000EF420DA6EDECF2EF0DDCF2FF0BE
:101BE0002EC0D9FF2FC0DAFF2C50DF120DEF0EF000
:101BF0002A502B6E2C6A2C50000AD8B402EF0EF03B
:101C000088EF0DF02B50000AD8B499EF0DF0010ABF
:101C1000D8B4CAEF0DF088EF0DF031501200000E6D
:101C20003A6E000E3B6E000E396E000E386E32506A
:101C30003310D8B41EEF0EF020EF0EF029EF0EF0A7
:101C400034503510D8A427EF0EF029EF0EF02BEF0B
:101C50000EF0A8EF0EF0000E3A6E030E3A6433EF6A
:101C60000EF035EF0EF037EF0EF02BEF0EF0000E0A
:101C7000396E030E39643FEF0EF041EF0EF043EF83
:101C80000EF050EF0EF039503224286E000E332043
:101C9000296E000E2A6E5DEC0DF0392A39EF0EF038
:101CA0003A503224286E000E3320296E010E2A6E1F
:101CB0005DEC0DF00D0E366EFC0EE82EFED7362EC6
:101CC000FCD7000E3B6E030E3B6469EF0EF06BEF2A
:101CD0000EF06DEF0EF0A5EF0EF03B503224366E95
:101CE000000E3320376E040E3624286E000E372087
:101CF000296E380E2A6E000E2B6E43EC0FF038045E
:101D0000D8A485EF0EF087EF0EF0A2EF0EF03A5058
:101D1000040D010EF324366E100EF420376E3B5086
:101D20003626000E372236C0F6FF37C0F7FFF86AB6
:101D300034C0D9FF35C0DAFF0800F5CFDFFF010E50
:101D4000A9EF0EF03B2A63EF0EF03A2A2DEF0EF0CA
:101D5000000E12000001AB51AC11D8A4B2EF0EF08E
:101D6000B4EF0EF0B8EF0EF0000EAF6F41EF0FF0D2
:101D7000010EAF6F22EF0FF020EE03F0AB51D9262A
:101D8000AC51DA22DF50D8A4C8EF0EF0CAEF0EF043
:101D9000CDEF0EF0F18C41EF0FF020EE03F0AB51E0
:101DA000D926AC51DA22DE04D8A4D9EF0EF0DBEF4D
:101DB0000EF0B4EF0EF0F19C41EF0FF020EE03F0C7
:101DC000AB51D926AC51DA22DF50D8A4EAEF0EF09D
:101DD000ECEF0EF0EFEF0EF0F18A41EF0FF020EE96
:101DE00003F0AB51D926AC51DA22DE04D8A4FBEFC4
:101DF0000EF0FDEF0EF0B4EF0EF0F19A41EF0FF0A0
:101E000020EE03F0AB51D926AC51DA22DF50D8A432
:101E10000CEF0FF00EEF0FF011EF0FF0F18841EF24
:101E20000FF020EE03F0AB51D926AC51DA22DE04DC
:101E3000D8A41DEF0FF01FEF0FF0B4EF0EF0F198E4
:101E400041EF0FF020EE04F0AB51D926AC51DA226D
:101E5000DF50AD6FAE6BAE51000AD8B432EF0FF069
:101E600041EF0FF0AD51000AD8B4BCEF0EF0010AFB
:101E7000D8B4DEEF0EF0030AD8B400EF0FF041EF54
:101E80000FF0AF511200010E316E28502910D8B456
:101E90004CEF0FF04EEF0FF077EF0FF02A502B10B2
:101EA000D8B455EF0FF057EF0FF077EF0FF028C0D1
:101EB000D9FF29C0DAFFDF30E832E832070B2C6E99
:101EC000080E2C6066EF0FF068EF0FF077EF0FF061
:101ED00028C0D9FF29C0DAFFDF50070B2C6E040E93
:101EE0002C6475EF0FF077EF0FF07BEF0FF0000E23
:101EF000316EACEF0FF028C0D9FF29C0DAFFDF3018
:101F0000E832E832070B2C6E28C0D9FF29C0DAFF6F
:101F1000DF50070B2D6E2D50020D800EF324D96E6D
:101F2000000EF420DA6EDECF2EF0DDCF2FF02EC0C3
:101F3000D9FF2FC0DAFFDF50306E2C2AA2EF0FF04E
:101F4000D89030322C2EA0EF0FF03050010B2AC069
:101F5000D9FF2BC0DAFFDF6E31501200010E0001F5
:101F6000B16FAD51AE11D8A4B8EF0FF0BAEF0FF0CA
:101F7000BEEF0FF0000EB16F16EF10F0CD909E90F7
:101F80009D8020EE02F0AD51D926AE51DA22DECF8F
:101F90004BF0DDCF4CF0F28EF28CADC0ABF0AEC0AA
:101FA000ACF0D1EC13F0ADC0ABF0AEC0ACF048EC8F
:101FB00018F0ADC0D9FFAEC0DAFFDECF49F0DDCFFB
:101FC0004AF0000120EE04F0AD51D926AE51DA22DC
:101FD000DF30030BAF6FAF3BCD50AF19CF0BAF1955
:101FE000CD6EADC0D9FFAEC0DAFFDECFAFF0DDCF32
:101FF000B0F0B0C0AFF0B06BAF51CF6EADC0D9FF95
:10200000AEC0DAFFDF50CE6E20EE04F0AD51D9261F
:10201000AE51DA22DFA80FEF10F011EF10F014EF3D
:1020200010F0CD8615EF10F0CD96CD80B151120095
:102030000001B451B511D8A420EF10F022EF10F038
:1020400024EF10F07DEF10F0020EB425AB6F000E00
:10205000B521AC6FA9EC0CF056EF10F0B4C0D9FF6D
:10206000B5C0DAFFDECF57F0DDCF58F07DEF10F0CE
:10207000B4C0D9FFB5C0DAFFDECF55F0DDCF56F0E2
:102080007DEF10F0B4C0D9FFB5C0DAFFDECF53F05A
:10209000DDCF54F07DEF10F0B4C0D9FFB5C0DAFF4A
:1020A000DECF51F0DDCF52F07DEF10F0000120EED9
:1020B00002F0B451D926B551DA22DF30E832E832E5
:1020C000070BB66FB76BB751000AD8B46AEF10F0C0
:1020D0007DEF10F0B651040AD8B42EEF10F0010ACB
:1020E000D8B438EF10F0030AD8B442EF10F0010A68
:1020F000D8B44CEF10F07DEF10F01200000E00018C
:10210000B06FAEBF88EF10F086EF10F08EEF10F0DA
:10211000AD6DAE1FD8B0AE2B010EB06FACBF95EF5A
:1021200010F093EF10F09BEF10F0AB6DAC1FD8B038
:10213000AC2B010EB01B000EB26F000EB16FAD5193
:10214000AE11D8B4A6EF10F0A8EF10F0D0EF10F059
:10215000010EAF6FB0EF10F0D890AD37AE37AF2BA8
:10216000AEAFB5EF10F0B7EF10F0ACEF10F0D890C5
:10217000B137B237AD51AB5DAE51AC59D8A0C3EF5A
:1021800010F0C5EF10F0CAEF10F0AD51AB5FAE51DB
:10219000AC5BB181D890AE33AD33AF2FB7EF10F059
:1021A000B051D8B4D6EF10F0D8EF10F0DCEF10F04B
:1021B000B16DB21FD8B0B22BB1C0ABF0B2C0ACF0B1
:1021C00012002A502B10D8A4E8EF10F0EAEF10F01C
:1021D000ECEF10F043EF11F0CD909E909D8020EE3B
:1021E00002F02A50D9262B50DA22DECF4BF0DDCF79
:1021F0004CF0F28EF28C2AC028F02BC029F00FECA4
:1022000014F02AC028F02BC029F06DEC18F02AC079
:10221000D9FF2BC0DAFFDECF49F0DDCF4AF020EE48
:1022200004F02A50D9262B50DA22DF30030B2C6E13
:102230002C3ACD502C18CF0B2C18CD6E2AC0D9FFBC
:102240002BC0DAFFDECF2CF0DDCF2DF02DC02CF02F
:102250002D6A2C50CF6E2AC0D9FF2BC0DAFFDF5079
:10226000CE6E20EE04F02A50D9262B50DA22DFA8B9
:102270003CEF11F03EEF11F041EF11F0CD8642EF4F
:1022800011F0CD96CD801200000E2D6E2BBE4DEFBD
:1022900011F04BEF11F053EF11F02A6C2B1ED8B058
:1022A0002B2A010E2D6E29BE5AEF11F058EF11F0B6
:1022B00060EF11F0286C291ED8B0292A010E2D1AC2
:1022C000000E2F6E000E2E6E2A502B10D8B46BEF1E
:1022D00011F06DEF11F095EF11F0010E2C6E75EF0E
:1022E00011F0D8902A362B362C2A2BAE7AEF11F02B
:1022F0007CEF11F071EF11F0D8902E362F362A5066
:10230000285C2B502958D8A088EF11F08AEF11F0E3
:102310008FEF11F02A50285E2B50295A2E80D8902A
:102320002B322A322C2E7CEF11F02D50D8B49BEF9B
:1023300011F09DEF11F0A1EF11F02E6C2F1ED8B00F
:102340002F2A2EC028F02FC029F012000001B4510E
:10235000B511D8A4AEEF11F0B0EF11F0B4EF11F059
:10236000000EB86FFDEF11F0020EB425AB6F000E3A
:10237000B521AC6FA9EC0CF00001B86FDEEF11F0E5
:10238000B4C0D9FFB5C0DAFFDECF5DF0DDCF5EF0BF
:10239000FDEF11F0B4C0D9FFB5C0DAFFDECF5BF0BE
:1023A000DDCF5CF0FDEF11F0B4C0D9FFB5C0DAFFAE
:1023B000DECF59F0DDCF5AF0FDEF11F020EE04F042
:1023C000B451D926B551DA22DF50B66FB76BB75189
:1023D000000AD8B4EEEF11F0FDEF11F0B651000A8B
:1023E000D8B4C0EF11F0010AD8B4CAEF11F0030A53
:1023F000D8B4D4EF11F0FDEF11F0B8511200000E77
:102400000001B06FACBF09EF12F007EF12F00FEF51
:1024100012F0AB6DAC1FD8B0AC2B010EB06FAEBFDD
:1024200016EF12F014EF12F01AEF12F0AD6DAE1FAE
:10243000D8B0AE2BAD51AE11D8B421EF12F023EFCE
:1024400012F047EF12F0010EAF6F2BEF12F0D890A1
:10245000AD37AE37AF2BAEAF30EF12F032EF12F038
:1024600027EF12F0AD51AB5DAE51AC59D8A03BEFA8
:1024700012F03DEF12F041EF12F0AD51AB5FAE51F3
:10248000AC5BD890AE33AD33AF2F32EF12F0B0511A
:10249000D8B44DEF12F04FEF12F053EF12F0AB6DD6
:1024A000AC1FD8B0AC2BABC0ABF0ACC0ACF01200E2
:1024B000000E2D6E29BE61EF12F05FEF12F067EF94
:1024C00012F0286C291ED8B0292A010E2D6E2BBEC1
:1024D0006EEF12F06CEF12F072EF12F02A6C2B1EFE
:1024E000D8B02B2A2A502B10D8B479EF12F07BEFFA
:1024F00012F09FEF12F0010E2C6E83EF12F0D890C5
:102500002A362B362C2A2BAE88EF12F08AEF12F0E7
:102510007FEF12F02A50285C2B502958D8A093EF57
:1025200012F095EF12F099EF12F02A50285E2B501E
:10253000295AD8902B322A322C2E8AEF12F02D50A5
:10254000D8B4A5EF12F0A7EF12F0ABEF12F0286CA1
:10255000291ED8B0292A28C028F029C029F0120045
:10256000010E2E6E2A502B10D8A4B9EF12F0BBEF3B
:1025700012F0BFEF12F0000E2E6E05EF13F0B190C7
:10258000A192A08220EE02F02A50D9262B50DA2206
:10259000DECF4FF0DDCF50F0F28EF28C2AC028F063
:1025A0002BC029F04CEC14F02AC028F02BC029F0E5
:1025B0007FEC18F02AC0D9FF2BC0DAFFDECF2CF059
:1025C000DDCF2DF02DC02CF02D6A2C50B36E2AC01B
:1025D000D9FF2BC0DAFFDF50B26E2AC0D9FF2BC063
:1025E000DAFFDECF4DF0DDCF4EF020EE04F02A50C2
:1025F000D9262B50DA22DF30030B2C6E2C3AB15047
:102600002C18CF0B2C18B16EB1802E501200000187
:10261000B551B611D8B40FEF13F011EF13F031EF3D
:1026200013F0B5C0D9FFB6C0DAFFDF50070BB76FA4
:10263000050EB7611EEF13F020EF13F031EF13F02A
:10264000B5C0D9FFB6C0DAFFDF30E832E832070B99
:10265000B76F070EB7652FEF13F031EF13F035EFBB
:1026600013F0000EB86F4DEF13F0B5C0ABF0B6C06D
:10267000ACF0A9EC0CF00001B86FB5C0ABF0B6C07F
:10268000ACF0B5C0D9FFB6C0DAFF000EDFBE010E58
:10269000AD6FF4EC0BF00001B817B8511200000E4A
:1026A0000001BE6F000EBF6FB951BA11D8A45BEF25
:1026B00013F05DEF13F061EF13F0000EBD6F90EFBC
:1026C00013F0000EBE6FBE51B925B56F000EBA21D2
:1026D000B66F07EC13F00001BE2B030EBE6573EF5F
:1026E00013F075EF13F063EF13F0000EBF6FBF51DF
:1026F000B925BB6F000EBA21BC6F040EBB25AB6FB2
:10270000000EBC21AC6FA9EC0CF00001BD6FBF2B1B
:10271000030EBF658EEF13F090EF13F077EF13F019
:10272000BD5112000001AB51AC11D8A49AEF13F0C7
:102730009CEF13F0A0EF13F0000EAF6FCFEF13F08C
:10274000010EAF6FB0EF13F0F28EF288CFEF13F0FF
:10275000F28EF086CFEF13F0F28EF088CFEF13F009
:1027600020EE04F0AB51D926AC51DA22DF50AD6F28
:10277000AE6BAE51000AD8B4C0EF13F09CEF13F06B
:10278000AD51000AD8B4A4EF13F0010AD8B4A8EFF1
:1027900013F0030AD8B4ACEF13F09CEF13F0AF5171
:1027A0001200000120EE04F0AB51D926AC51DA2220
:1027B000DFA0DDEF13F0DFEF13F000EF14F0CD82B8
:1027C00020EE04F0AB51D926AC51DA22DFBAEBEFA0
:1027D00013F0EDEF13F0F0EF13F0CD840EEF14F0E3
:1027E00020EE04F0AB51D926AC51DA22DFAAFBEF80
:1027F00013F0FDEF13F00EEF14F0CD940EEF14F084
:1028000020EE04F0AB51D926AC51DA22DFB00BEF49
:1028100014F00DEF14F00EEF14F0CD92120020EE34
:1028200004F02850D9262950DA22DFA01AEF14F03C
:102830001CEF14F03DEF14F0CD8220EE04F0285090
:10284000D9262950DA22DFBA28EF14F02AEF14F043
:102850002DEF14F0CD844BEF14F020EE04F028504F
:10286000D9262950DA22DFAA38EF14F03AEF14F013
:102870004BEF14F0CD944BEF14F020EE04F0285001
:10288000D9262950DA22DFB048EF14F04AEF14F0CD
:102890004BEF14F0CD92120020EE04F02850D92610
:1028A0002950DA22DFA057EF14F059EF14F07AEF35
:1028B00014F0B18220EE04F02850D9262950DA22F3
:1028C000DFB865EF14F067EF14F06AEF14F0B1842D
:1028D00088EF14F020EE04F02850D9262950DA228F
:1028E000DFA875EF14F077EF14F088EF14F0B194CF
:1028F00088EF14F020EE04F02850D9262950DA226F
:10290000DFB085EF14F087EF14F088EF14F0B19288
:1029100012000001AB51AC11D8A491EF14F093EF69
:1029200014F097EF14F0000EAF6FC3EF14F0010E28
:10293000AF6FA4EF14F0F298C3EF14F0F096C3EF6A
:1029400014F0F098C3EF14F020EE04F0AB51D92648
:10295000AC51DA22DF50AD6FAE6BAE51000AD8B485
:10296000B4EF14F093EF14F0AD51000AD8B49BEF1C
:1029700014F0010AD8B49EEF14F0030AD8B4A1EF02
:1029800014F093EF14F0AF5112000001AB51AC11F1
:10299000D8A4CDEF14F0CFEF14F0D3EF14F0000E65
:1029A000AF6FFFEF14F0010EAF6FE0EF14F0F29293
:1029B000FFEF14F0F090FFEF14F0F092FFEF14F03F
:1029C00020EE04F0AB51D926AC51DA22DF50AD6FC6
:1029D000AE6BAE51000AD8B4F0EF14F0CFEF14F0A4
:1029E000AD51000AD8B4D7EF14F0010AD8B4DAEF29
:1029F00014F0030AD8B4DDEF14F0CFEF14F0AF51A8
:102A000012001A0E0001AD6F000EAE6FAEEC0FF0AB
:102A1000196E980E0001B96F000EBA6F3AEC15F0FE
:102A2000196E920E0001B96F000EBA6F3AEC15F0F4
:102A3000196E240E0001B86F000EB96F0EEC17F07E
:102A4000196EA70E0001B86F000EB96F0EEC17F0EB
:102A5000196EA30E0001B86F000EB96F0EEC17F0DF
:102A6000196EC00E0001AB6F030E83EC16F0196EE9
:102A7000195012000001B951BA11D8A442EF15F053
:102A800044EF15F048EF15F0000EBB6F6EEF15F038
:102A9000B9C0ABF0BAC0ACF089EC14F00001BB6F68
:102AA000B9C0ABF0BAC0ACF0C5EC14F00001BB6F1C
:102AB000B9C0ABF0BAC0ACF0AAEC0EF00001BB6F2D
:102AC000B9C0B4F0BAC0B5F0A6EC11F0B9C0ABF023
:102AD000BAC0ACF092EC13F00001BB6FBB51120016
:102AE0000001B951BA11D8A478EF15F07AEF15F0BA
:102AF0007EEF15F0000EBB6FA4EF15F0B9C0B5F076
:102B0000BAC0B6F007EC13F00001BB6F010EB92597
:102B1000B56F000EBA21B66F07EC13F00001BB6F62
:102B2000020EB925B56F000EBA21B66F07EC13F08F
:102B30000001BB6F030EB925B56F000EBA21B66F49
:102B400007EC13F00001BB6FBB5112005F50D8B40B
:102B5000ACEF15F0AFEF15F0010EB0EF15F0000E71
:102B60005F6E5F50D8A4B7EF15F0B9EF15F0C7EF5F
:102B700015F01F0E286E000E296E1FEC18F0000EC7
:102B8000616E000E626E000E636ED5EF15F05F048D
:102B9000D8A4CDEF15F0CFEF15F0D5EF15F01F0E3F
:102BA0002A6E000E2B6EB0EC12F01200602A040E9A
:102BB0006018D8A4DEEF15F0E0EF15F003EF16F083
:102BC000612A3B0E6164E7EF15F0E9EF15F0ECEFD9
:102BD00015F0622A000E616E3B0E6264F2EF15F092
:102BE000F4EF15F0F7EF15F0632A000E626E170E82
:102BF0006364FDEF15F0FFEF15F001EF16F0000E26
:102C0000636E000E606E1200642A040E6418D8A46D
:102C10000CEF16F00EEF16F031EF16F0652A3B0EB2
:102C2000656415EF16F017EF16F01AEF16F0662A26
:102C3000000E656E3B0E666420EF16F022EF16F074
:102C400025EF16F0672A000E666E170E67642BEFED
:102C500016F02DEF16F02FEF16F0000E676E000E37
:102C6000646E1200120EF66E300EF76E000EF86EE5
:102C700000EE80F010EE2BF00900F5CFEEFFE550EE
:102C8000E150FAE1680EF66E300EF76E000EF86E47
:102C900000EE01F010EE27F00900F5CFEEFFE55051
:102CA000E150FAE100EE49F0200EEE6AE806FDE19F
:102CB0006990699200015DEF16F0D1EC18F05F5059
:102CC000D8A465EF16F067EF16F070EF16F066C047
:102CD000B8F065C0B9F067502BEC0BF05FEF16F061
:102CE0005F04D8A476EF16F078EF16F05FEF16F0D9
:102CF00062C0B8F061C0B9F063502BEC0BF05FEF2D
:102D000016F007EF00F00001AF6F010E0001AE6F8B
:102D1000040EAF658EEF16F090EF16F094EF16F0FC
:102D2000000EAE6FA6EF16F0AF51020D0B0EF3249E
:102D3000D96E000EF420DA6EDECFACF0DDCFADF050
:102D4000ACC0D9FFADC0DAFFABC0DFFFAE5112009F
:102D50000001B76F010E0001B66F040EB765B3EF47
:102D600016F0B5EF16F0B9EF16F0000EB66FCBEF18
:102D700016F0B751020D010EF324D96E000EF420A7
:102D8000DA6EDECFB4F0DDCFB5F0B4C0D9FFB5C098
:102D9000DAFFB3C0DFFFB6511200346E010E336E9E
:102DA000040E3464D6EF16F0D8EF16F0DCEF16F010
:102DB000000E336EEEEF16F03450020D010EF324C8
:102DC000D96E000EF420DA6EDECF31F0DDCF32F0B6
:102DD00031C0D9FF32C0DAFF30C0DFFF33501200FC
:102DE0002F6E2F50D8A4F7EF16F0F9EF16F00DEF75
:102DF00017F01F0E286E000E296E1FEC18F0196ECA
:102E0000000E636E000E626E000E616E1F0E2A6E63
:102E1000000E2B6EB0EC12F0196E12000001B851CA
:102E2000B911D8A416EF17F018EF17F01AEF17F032
:102E300028EF17F0F296B8C0B4F0B9C0B5F018ECAE
:102E400010F0F290B8C0ABF0B9C0ACF0B3EC18F031
:102E5000000E1200A1924E50B36E4DC0B2FF4F5003
:102E60005010D8B436EF17F038EF17F044EF17F0E2
:102E700002D844EF17F00500FA6E4F50FD6E505027
:102E8000FE6EFF6AFA50120012009E904A50CF6EFA
:102E900049C0CEFF4B504C10D8B451EF17F053EF50
:102EA00017F05FEF17F002D85FEF17F00500FA6E2A
:102EB0004B50FD6E4C50FE6EFF6AFA50120012002D
:102EC000306EF29051505210D8B469EF17F06BEF9A
:102ED00017F078EF17F002D878EF17F00500FA6EC8
:102EE0005150FD6E5250FE6EFF6AFA503050120083
:102EF0001200306EF29053505410D8B482EF17F095
:102F000084EF17F091EF17F002D891EF17F005005A
:102F1000FA6E5350FD6E5450FE6EFF6AFA503050F8
:102F200012001200306EF29055505610D8B49BEF3C
:102F300017F09DEF17F0AAEF17F002D8AAEF17F0DD
:102F40000500FA6E5550FD6E5650FE6EFF6AFA503F
:102F5000305012001200306EF29057505810D8B412
:102F6000B4EF17F0B6EF17F0C3EF17F002D8C3EFC6
:102F700017F00500FA6E5750FD6E5850FE6EFF6A4E
:102F8000FA50305012001200F09259505A10D8B432
:102F9000CCEF17F0CEEF17F0DAEF17F002D8DAEF38
:102FA00017F00500FA6E5950FD6E5A50FE6EFF6A1A
:102FB000FA5012001200F0905B505C10D8B4E3EFAE
:102FC00017F0E5EF17F0F1EF17F002D8F1EF17F077
:102FD0000500FA6E5B50FD6E5C50FE6EFF6AFA50A3
:102FE00012001200F2925D505E10D8B4FAEF17F0A2
:102FF000FCEF17F008EF18F002D808EF18F0050002
:10300000FA6E5D50FD6E5E50FE6EFF6AFA50120061
:103010001200800F810F820F830F840F020A121A91
:10302000626A727A1210490001004C2B41000000C4
:0D30300000081018012231790044317100B0
:10303E00010E2A6E28502910D8A428EF18F02AEF76
:10304E0018F02EEF18F0000E2A6E32EF18F0A19243
:10305E00A092000EB16E2A501200890F8A0F8B0FAC
:10306E008C0F8D0F920F930F940F950F960F0101EA
:10307E00010101DC0B082C06DC0BAC2B06E02D69E4
:01308E000041
:10309000000120EE04F0AB51D926AC51DA22DFA6B4
:1030A00054EF18F056EF18F059EF18F0CD8E5AEF94
:1030B00018F0CD9E12009E0E0001B96F000EBA6F7F
:1030C00070EC15F0196E8A0E0001B96F000EBA6F20
:1030D0004FEC13F0196E1950120020EE04F0285036
:1030E000D9262950DA22DFA678EF18F07AEF18F007
:1030F0007DEF18F0CD8E7EEF18F0CD9E120020EE01
:1031000004F02850D9262950DA22DFA68AEF18F0D9
:103110008CEF18F08FEF18F0B18E90EF18F0B19E91
:1031200012002F6E2F50D8A498EF18F09AEF18F0D5
:10313000A1EF18F01F0E2A6E000E2B6EB0EC12F0ED
:10314000196E12002B6E2B50D8A4A9EF18F0ABEF1C
:1031500018F0B2EF18F01F0E286E000E296E1FEC4B
:1031600018F0196E12000001AB51AC11D8A4BBEFDE
:1031700018F0BDEF18F0BFEF18F0C1EF18F0F28EA5
:10318000F286120028502910D8A4C9EF18F0CBEF0E
:1031900018F0CDEF18F0D0EF18F09E909D90CD90E4
:1031A00012005BEC18F0196E01EC15F0196E1200AC
:020000040020DA
:08000000FFFFFFFFFFFFFFFF00
:020000040030CA
:0E000000FF00091EFF8181FF0FC00FE00F40BF
:00000001FF
