:100000000C942A000C9410090C944A090C94470093
:100010000C9447000C94CC0A0C9447000C944700B5
:100020000C9447000C9447000C9447000C94470034
:100030000C9447000C9447000C9447000C94470024
:100040000C9447000C9447000C9484090C944700CE
:100050000C94470011241FBECFE5D4E0DEBFCDBF16
:1000600011E0A0E6B0E0ECECF1E302C005900D92E7
:10007000A23BB107D9F711E0A2EBB1E001C01D929C
:10008000A53CB107E1F70E9404180C94E4180C9405
:100090000000EF92FF920F931F937B018C0120E0F1
:1000A00030E040E05FE40E94F50388238CF0C80153
:1000B000B70120E030E040E05FE40E94C1010E940F
:1000C00055049B01AC01205030404040504806C0D0
:1000D000C801B7010E9455049B01AC01B901CA01D6
:1000E0001F910F91FF90EF900895A0E0B0E0EBE733
:1000F000F0E00C94AD18DC012B01FA019C919230D8
:1001000008F439C1EB018881823008F433C194309E
:1001100069F4843009F02FC111969C91119789815F
:10012000981709F428C1A0E8B0E025C1843009F48B
:1001300021C18230A9F4923009F01DC19A01AD01AC
:1001400088E0EA010990AE01E90109929E0181501F
:10015000C1F7E201898111969C918923818308C1AD
:10016000923009F407C112962D903C901397EB0141
:100170008A819B811496AD90BD90CD90DC901797AD
:10018000EC80FD800E811F819101281B390BB90184
:1001900037FF04C066277727621B730B6032710537
:1001A0000CF061C0121613066CF537014801062EDB
:1001B00004C096948794779467940A94D2F721E0C8
:1001C00030E040E050E004C0220F331F441F551FB1
:1001D0006A95D2F721503040404050402E213F21B7
:1001E00040235123211531054105510521F021E01E
:1001F00030E040E050E079018A01E628F72808293C
:1002000019293CC0232BD1F1260E371E350146019A
:10021000062E04C096948794779467940A94D2F734
:1002200021E030E040E050E004C0220F331F441FC3
:10023000551F6A95D2F721503040404050402A2146
:100240003B214C215D21211531054105510521F04E
:1002500021E030E040E050E059016A01A628B728CB
:10026000C828D9280BC0821593052CF01C01AA249C
:10027000BB24650103C0EE24FF24870111969C91E5
:10028000D20111968C91981709F445C0992339F041
:10029000A80197012A193B094C095D0906C0A6016E
:1002A00095012E193F09400B510B57FD08C01182D3
:1002B0003382228224833583468357831DC081E0A5
:1002C00081833382228288279927DC01821B930B4A
:1002D000A40BB50B84839583A683B7830DC0220F2F
:1002E000331F441F551F24833583468357838281E0
:1002F000938101979383828324813581468157813D
:10030000DA01C9010197A109B1098F5F9F4FAF4F72
:10031000BF4328F30BC0918333822282EA0CFB1C7B
:100320000C1D1D1DE482F5820683178383E0808304
:10033000248135814681578157FF1AC0C901AA27F8
:1003400097FDA095BA2F81709070A070B0705695EF
:10035000479537952795822B932BA42BB52B848318
:100360009583A683B7838281938101969383828349
:10037000DF0101C0D201CD01CDB7DEB7E2E10C94BF
:10038000C918A0E2B0E0E7ECF1E00C94B918698379
:100390007A838B839C832D833E834F835887E9E048
:1003A000EE2EF12CEC0EFD1ECE010196B7010E943F
:1003B00046068E010F5E1F4FCE010596B8010E94C2
:1003C00046068A8991E089278A8BC701B801AE0168
:1003D000475E5F4F0E9475000E947105A096E6E09F
:1003E0000C94D518A0E2B0E0E8EFF1E00C94B91855
:1003F00069837A838B839C832D833E834F835887C5
:10040000F9E0EF2EF12CEC0EFD1ECE010196B701A6
:100410000E9446068E010F5E1F4FCE010596B80161
:100420000E944606C701B801AE01475E5F4F0E94B9
:1004300075000E947105A096E6E00C94D518A0E224
:10044000B0E0E5E2F2E00C94AD1869837A838B8327
:100450009C832D833E834F835887CE010196BE0136
:10046000675F7F4F0E944606CE010596BE016F5E14
:100470007F4F0E9446069985923088F089898230A4
:10048000C8F0943019F4823051F404C0843029F457
:10049000923081F480E890E0C6C0923049F420E0C8
:1004A0009A858A89981321E02A87CE010996BBC0D4
:1004B000823049F420E09A858A89981321E02A8BBA
:1004C000CE014196B0C02D843E844F8458886D88FB
:1004D0007E888F88988CEE24FF248701AA24BB2471
:1004E000650140E050E060E070E0E0E0F0E0C10174
:1004F00081709070892BE9F0E60CF71C081D191D1E
:100500009A01AB012A0D3B1D4C1D5D1D80E090E062
:10051000A0E0B0E0E614F7040805190520F481E036
:1005200090E0A0E0B0E0BA01A901480F591F6A1F8E
:100530007B1FAA0CBB1CCC1CDD1C97FE08C081E0F5
:1005400090E0A0E0B0E0A82AB92ACA2ADB2A3196B6
:10055000E032F10549F0660C771C881C991C569412
:10056000479437942794C3CFFA85EA892B893C892D
:100570008B859C85280F391F2E5F3F4F17C0CA01FE
:1005800081709070892B61F016950795F794E79428
:1005900080E090E0A0E0B0E8E82AF92A0A2B1B2BC3
:1005A00076956795579547952F5F3F4F77FDE7CF36
:1005B0000CC0440F551F661F771F17FD4160EE0CDE
:1005C000FF1C001F111F21503040403090E05907A0
:1005D00090E0690790E4790760F32B8F3C8FDB0193
:1005E000CA018F779070A070B07080349105A1051A
:1005F000B10561F447FD0AC0E114F10401051105DC
:1006000029F0405C5F4F6F4F7F4F40781A8EFE1786
:1006100011F081E08A8F4D8F5E8F6F8F78A383E01A
:10062000898FCE0149960E947105A096E2E10C9453
:10063000C918A8E1B0E0EFE1F3E00C94B5186983C4
:100640007A838B839C832D833E834F835887B9E0C5
:10065000EB2EF12CEC0EFD1ECE010196B7010E948F
:1006600046068E010F5E1F4FCE010596B8010E940F
:1006700046062985223008F47EC03989323010F4CC
:10068000B8017CC08A859A8989278A87243011F02D
:10069000223031F4231709F06EC060E870E06EC0BC
:1006A000343039F41D861E861F86188A1C861B86E8
:1006B00004C0323021F484E08987B7015FC02B8504
:1006C0003C858B899C89281B390B3C872B87ED84C3
:1006D000FE840F851889AD88BE88CF88D88CEA142F
:1006E000FB040C051D0540F4EE0CFF1C001F111F40
:1006F000215030403C872B8720E030E040E050E044
:1007000080E090E0A0E0B0E460E070E0EA14FB0478
:100710000C051D0540F0282B392B4A2B5B2BEA18C2
:10072000FB080C091D09B695A79597958795EE0CC2
:10073000FF1C001F111F6F5F7F4F6F31710531F775
:10074000DA01C9018F779070A070B0708034910584
:10075000A105B10561F427FD0AC0E114F10401050A
:10076000110529F0205C3F4F4F4F5F4F20782D87B8
:100770003E874F87588BBE01675F7F4FCB010E943A
:1007800071056896EAE00C94D118A8E1B0E0EBECB2
:10079000F3E00C94B91869837A838B839C832D834F
:1007A0003E834F83588789E0E82EF12CEC0EFD1E26
:1007B000CE010196B7010E9446068E010F5E1F4FC3
:1007C000CE010596B8010E9446068985823040F028
:1007D0008989823028F0C701B8010E94BE0601C095
:1007E0008FEF6896E6E00C94D518A8E1B0E0EBEF47
:1007F000F3E00C94B91869837A838B839C832D83EF
:100800003E834F83588789E0E82EF12CEC0EFD1EC5
:10081000CE010196B7010E9446068E010F5E1F4F62
:10082000CE010596B8010E9446068985823040F0C7
:100830008989823028F0C701B8010E94BE0601C034
:100840008FEF6896E6E00C94D518A8E1B0E0EBE2F3
:10085000F4E00C94B91869837A838B839C832D838D
:100860003E834F83588789E0E82EF12CEC0EFD1E65
:10087000CE010196B7010E9446068E010F5E1F4F02
:10088000CE010596B8010E9446068985823040F067
:100890008989823028F0C701B8010E94BE0601C0D4
:1008A00081E06896E6E00C94D518ACE0B0E0EBE5AA
:1008B000F4E00C94BD1869837A838B839C83CE010A
:1008C0000196BE016B5F7F4F0E9446068D8182308C
:1008D00061F1823050F1843021F48E81882351F10E
:1008E0002EC02F81388537FD20C06E812F31310514
:1008F0001CF06623F9F023C08EE190E0821B930B7D
:1009000029853A854B855C8504C056954795379572
:1009100027958A95D2F76623B1F05095409530958A
:1009200021953F4F4F4F5F4F0EC020E030E040E039
:1009300050E009C02FEF3FEF4FEF5FE704C020E02A
:1009400030E040E050E8B901CA012C96E2E00C9496
:10095000D918A8E0B0E0EFEAF4E00C94B5187B01F8
:100960008C01611571058105910519F482E0898377
:1009700060C083E089838EE1C82ED12CDC82CB82DB
:10098000ED82FE820F831887C801B7010E942205FD
:10099000FC013197F7FF3BC0222733272E1B3F0B6B
:1009A00057016801022E04C0D694C794B794A79447
:1009B0000A94D2F740E050E060E070E081E090E01F
:1009C000A0E0B0E004C0880F991FAA1FBB1F2A95A2
:1009D000D2F70197A109B1098E219F21A023B1234C
:1009E0000097A105B10521F041E050E060E070E022
:1009F0004A295B296C297D294D835E836F83788723
:100A00008EE190E08E1B9F0B9C838B8312C03097EE
:100A100081F00E2E04C0EE0CFF1C001F111F0A9463
:100A2000D2F7ED82FE820F831887CE1ADF0ADC82AE
:100A3000CB821A82CE0101960E9471052896EAE0C7
:100A40000C94D118EF92FF920F931F937B018C01AE
:100A500080E0E81680E0F80681E0080780E01807EB
:100A600088F48FEFE816F1040105110531F028F044
:100A700088E090E0A0E0B0E017C080E090E0A0E067
:100A8000B0E012C080E0E81680E0F80680E00807D9
:100A900081E0180728F088E190E0A0E0B0E004C011
:100AA00080E190E0A0E0B0E020E230E040E050E003
:100AB000281B390B4A0B5B0B04C016950795F7945E
:100AC000E7948A95D2F7F701E857FF4F8081281BFA
:100AD000310941095109C9011F910F91FF90EF9010
:100AE0000895DF92EF92FF920F931F93FC01E48031
:100AF000F58006811781D1808081823048F480E0C2
:100B000090E0A0E1B0E0E82AF92A0A2B1B2BA5C04F
:100B1000843009F49FC0823021F4EE24FF24870141
:100B200005C0E114F1040105110519F4E0E0F0E05D
:100B300096C0628173819FEF623879070CF05BC0C9
:100B400022E83FEF261B370B2A3131052CF020E03D
:100B500030E040E050E02AC0B801A701022E04C0F6
:100B600076956795579547950A94D2F781E090E07E
:100B7000A0E0B0E004C0880F991FAA1FBB1F2A95F0
:100B8000D2F70197A109B1098E219F21A023B1239A
:100B90000097A105B10521F081E090E0A0E0B0E070
:100BA0009A01AB01282B392B4A2B5B2BDA01C901A7
:100BB0008F779070A070B07080349105A105B10559
:100BC00039F427FF09C0205C3F4F4F4F5F4F04C0EF
:100BD000215C3F4F4F4F5F4FE0E0F0E02030A0E05E
:100BE0003A07A0E04A07A0E45A0710F0E1E0F0E07D
:100BF00079018A0127C06038710564F5FB01E1586D
:100C0000FF4FD801C7018F779070A070B07080340B
:100C10009105A105B10539F4E7FE0DC080E490E02F
:100C2000A0E0B0E004C08FE390E0A0E0B0E0E80E08
:100C3000F91E0A1F1B1F17FF05C016950795F7948D
:100C4000E794319687E016950795F794E7948A958F
:100C5000D1F705C0EE24FF248701EFEFF0E06E2FFF
:100C6000679566276795902F9F77D794DD24D79453
:100C70008E2F8695492F462B582F5D29B701CA0123
:100C80001F910F91FF90EF90DF900895FC01DB0121
:100C9000408151812281622F6F7770E0221F2227CD
:100CA000221F9381892F880F822B282F30E0991FD4
:100CB0009927991F11969C93119721153105A9F534
:100CC000411551056105710511F482E037C082E8D4
:100CD0009FEF13969C938E9312979A01AB0167E056
:100CE000220F331F441F551F6A95D1F783E08C9361
:100CF0000DC0220F331F441F551F12968D919C91DA
:100D00001397019713969C938E931297203080E04F
:100D1000380780E0480780E4580758F314962D936D
:100D20003D934D935C93179708952F3F310579F4C8
:100D3000411551056105710519F484E08C930895FE
:100D400064FF03C081E08C9312C01C9210C02F5727
:100D5000304013963C932E93129783E08C9387E058
:100D6000440F551F661F771F8A95D1F7706414963C
:100D70004D935D936D937C93179708951F93DC01BA
:100D8000FB019C91923008F447C08081823008F4C6
:100D900043C0943051F411961C91843099F58181AF
:100DA000682F70E0611B71093FC0843021F09230E0
:100DB00031F48230B9F18181882389F12DC01196F7
:100DC0001C9111978230F1F081811817D9F4129695
:100DD0002D913C911397828193818217930794F010
:100DE00028173907BCF014968D919D910D90BC91F8
:100DF000A02D2481358146815781281739074A075C
:100E00005B0718F4112341F00AC082179307A40767
:100E1000B50740F4112319F061E070E005C06FEFF1
:100E20007FEF02C060E070E0CB011F910895DF9377
:100E3000CF9300D000D00F92CDB7DEB79B838A83CB
:100E400081E089838A819B81009711F4198274C0A3
:100E5000EA81FB8182818695869583700E94A50731
:100E600089838A819B810E94F7078983AFE5B0E07F
:100E7000EFE5F0E0808180688C93EA81FB818281DC
:100E8000869586958370282F30E03D832C838C8156
:100E90009D818130910509F12C813D812230310500
:100EA00099F18C819D81009709F045C0ABE5B0E0D8
:100EB000EBE5F0E0808180648C93A1E3B0E0E1E3B6
:100EC000F0E080818B7F8C93EA81FB81808191812E
:100ED0009093B3018093B2012FC0ABE5B0E0EBE596
:100EE000F0E0808180688C93A1E3B0E0E1E3F0E082
:100EF0008081877F8C93EA81FB81808191819093AF
:100F0000B5018093B40118C0ABE5B0E0EBE5F0E0CB
:100F1000808180628C93A7E3B0E0E7E3F0E080811A
:100F20008B7F8C93EA81FB81808191819093B701C3
:100F30008093B60101C0198289810F900F900F90A4
:100F40000F900F90CF91DF910895DF93CF9300D052
:100F500000D0CDB7DEB78A8381E089838A81282FCC
:100F600030E03C832B838B819C8181309105C1F0E3
:100F70002B813C812230310511F18B819C810097BE
:100F800069F5AAE5B0E0EAE5F0E080818F7B8C931B
:100F9000ABE5B0E0EBE5F0E080818F7B8C931FC088
:100FA000AAE5B0E0EAE5F0E080818F778C93ABE5CD
:100FB000B0E0EBE5F0E080818F778C9310C0AAE57C
:100FC000B0E0EAE5F0E080818F7D8C93ABE5B0E0A6
:100FD000EBE5F0E080818F7D8C9301C019828981DF
:100FE0000F900F900F900F90CF91DF910895DF93A6
:100FF000CF93CDB7DEB72B970FB6F894DEBF0FBEF9
:10100000CDBF9B838A8381E08983EA81FB818281D2
:10101000869586958370282F30E03B872A878A85BE
:101020009B858130910509F46BC02A853B85223070
:10103000310509F4C5C08A859B85009709F0E5C094
:10104000EA81FB8182818370282F30E039872887ED
:10105000888599858130910521F12885398522304F
:1010600031052CF488859985009761F047C0288563
:1010700039852230310521F18885998583309105A4
:1010800071F13CC0A5E5B0E0E5E5F0E080818E7F40
:101090008C93A5E5B0E0E5E5F0E080818D7F8C9351
:1010A000B5C0A5E5B0E0E5E5F0E0808181608C9316
:1010B000A5E5B0E0E5E5F0E080818D7F8C93A6C0EA
:1010C000A5E5B0E0E5E5F0E080818E7F8C93A5E5B5
:1010D000B0E0E5E5F0E0808182608C9397C0A5E503
:1010E000B0E0E5E5F0E0808181608C93A5E5B0E0BB
:1010F000E5E5F0E0808182608C9388C0198286C02B
:10110000EA81FB8182818370282F30E03F832E8328
:101110008E819F818130910521F12E813F81223086
:1011200031052CF48E819F81009761F047C02E819C
:101130003F812230310521F18E819F8183309105DD
:1011400071F13CC0A5E5B0E0E5E5F0E080818B7F82
:101150008C93A5E5B0E0E5E5F0E08081877F8C9396
:1011600055C0A5E5B0E0E5E5F0E0808184608C93B2
:10117000A5E5B0E0E5E5F0E08081877F8C9346C08F
:10118000A5E5B0E0E5E5F0E080818B7F8C93A5E5F7
:10119000B0E0E5E5F0E0808188608C9337C0A5E59C
:1011A000B0E0E5E5F0E0808184608C93A5E5B0E0F7
:1011B000E5E5F0E0808188608C9328C0198226C024
:1011C000EA81FB8182818370282F30E03D832C836C
:1011D0008C819D818230910531F02C813D812330BD
:1011E000310549F010C0A4E5B0E0E4E5F0E080810D
:1011F0008F7B8C930BC0A4E5B0E0E4E5F0E0808148
:1012000080648C9303C0198201C0198289812B9656
:101210000FB6F894DEBF0FBECDBFCF91DF9108951A
:101220001F920F920FB60F9211242F933F934F935B
:101230005F936F937F938F939F93AF93BF93EF933E
:10124000FF93DF93CF93CDB7DEB7AAE5B0E0EAE531
:10125000F0E080818F7B8C938091B2019091B301FB
:10126000009729F0E091B201F091B3010995CF9177
:10127000DF91FF91EF91BF91AF919F918F917F91FE
:101280006F915F914F913F912F910F900FBE0F90F3
:101290001F9018951F920F920FB60F9211242F9343
:1012A0003F934F935F936F937F938F939F93AF93EE
:1012B000BF93EF93FF93DF93CF93CDB7DEB7AAE54C
:1012C000B0E0EAE5F0E080818F778C938091B40103
:1012D0009091B501009729F0E091B401F091B5012A
:1012E0000995CF91DF91FF91EF91BF91AF919F91C0
:1012F0008F917F916F915F914F913F912F910F90BF
:101300000FBE0F901F9018951F920F920FB60F925D
:1013100011242F933F934F935F936F937F938F93FA
:101320009F93AF93BF93EF93FF93DF93CF93CDB78B
:10133000DEB7AAE5B0E0EAE5F0E080818F7D8C932E
:101340008091B6019091B701009729F0E091B60124
:10135000F091B7010995CF91DF91FF91EF91BF9186
:10136000AF919F918F917F916F915F914F913F913D
:101370002F910F900FBE0F901F901895DF93CF9372
:1013800000D000D00F92CDB7DEB79B838A8381E077
:1013900089838A819B81009711F4198257C0EEE4FA
:1013A000F0E01082EA81FB8183810E944C0AEA818D
:1013B000FB818381282F30E03D832C838C819D81AC
:1013C000009731F02C813D812130310549F010C06A
:1013D000AEE4B0E0EEE4F0E080818F778C930FC054
:1013E000AEE4B0E0EEE4F0E0808180688C9307C06A
:1013F000AEE4B0E0EEE4F0E080818F7B8C93AFE56B
:10140000B0E0EFE5F0E0808180688C93A8E5B0E083
:10141000E8E5F0E0808180628C93A9E5B0E0E9E541
:10142000F0E0808180628C93EA81FB8180819181F0
:101430000E942F0A8983EDE4F0E01082ECE4F0E0F2
:101440001082EA81FB8182810E94060B89810F90C4
:101450000F900F900F900F90CF91DF910895DF9331
:10146000CF9300D00F92CDB7DEB79B838A8381E004
:1014700089838A819B81009711F4198206C08A8131
:101480009B819093B9018093B80189810F900F904F
:101490000F90CF91DF910895DF93CF9300D00F92FB
:1014A000CDB7DEB789838981282F30E03B832A833B
:1014B0008A819B81009731F02A813B81213031055F
:1014C00049F00FC0AEE4B0E0EEE4F0E080818F7B45
:1014D0008C9307C0AEE4B0E0EEE4F0E0808180647D
:1014E0008C93A8E5B0E0E8E5F0E0808180628C9321
:1014F0000F900F900F90CF91DF910895DF93CF93CE
:1015000000D00F92CDB7DEB79B838A8381E08983B9
:101510008A819B81009711F4198214C0E6E4F0E0FF
:101520008081882F90E0EA81FB8191838083E7E4CA
:10153000F0E08081882F90E0982F8827EA81FB8156
:101540009183808389810F900F900F90CF91DF91CD
:101550000895DF93CF93CDB7DEB7ECE4F0E01182CE
:101560001082CF91DF910895DF93CF93CDB7DEB78F
:10157000EFE4F0E01082EEE4F0E01082ECE4F0E062
:1015800011821082A9E5B0E0E9E5F0E080818F7D6D
:101590008C93CF91DF9108951F920F920FB60F9207
:1015A00011242F933F934F935F936F937F938F9368
:1015B0009F93AF93BF93EF93FF93DF93CF93CDB7F9
:1015C000DEB78091B8019091B901009729F0E091C0
:1015D000B801F091B9010995A8E5B0E0E8E5F0E0BF
:1015E000808180628C93CF91DF91FF91EF91BF91C9
:1015F000AF919F918F917F916F915F914F913F91AB
:101600002F910F900FBE0F901F901895DF93CF93DF
:1016100000D00F92CDB7DEB789838981282F30E0C3
:101620003B832A838A819B818330910509F449C0D9
:101630002A813B81243031055CF48A819B81813091
:10164000910599F02A813B812230310521F17BC03F
:101650008A819B818430910509F449C02A813B81AC
:101660002530310509F459C06EC0AEE4B0E0EEE4B7
:10167000F0E0808181608C93AEE4B0E0EEE4F0E0D5
:1016800080818D7F8C93AEE4B0E0EEE4F0E0808169
:101690008B7F8C936DC0AEE4B0E0EEE4F0E080812F
:1016A0008E7F8C93AEE4B0E0EEE4F0E08081826067
:1016B0008C93AEE4B0E0EEE4F0E080818B7F8C931D
:1016C00057C0AEE4B0E0EEE4F0E0808181608C933E
:1016D000AEE4B0E0EEE4F0E0808182608C93AEE4B2
:1016E000B0E0EEE4F0E080818B7F8C9341C0AEE40B
:1016F000B0E0EEE4F0E080818E7F8C93AEE4B0E069
:10170000EEE4F0E080818D7F8C93AEE4B0E0EEE417
:10171000F0E0808184608C932BC0AEE4B0E0EEE416
:10172000F0E0808181608C93AEE4B0E0EEE4F0E024
:1017300080818D7F8C93AEE4B0E0EEE4F0E08081B8
:1017400084608C9315C0AEE4B0E0EEE4F0E08081FC
:1017500081608C93AEE4B0E0EEE4F0E080818D7FB8
:101760008C93AEE4B0E0EEE4F0E080818B7F8C936C
:101770000F900F900F90CF91DF910895DF93CF934B
:1017800000D00F92CDB7DEB79B838A8381E0898337
:101790008A819B81009711F419826EC081E0898350
:1017A000EA81FB8180818074882389F5EA81FB814D
:1017B00080818770882F90E0880F991FFC01E8577F
:1017C000FE4FA081B181EA81FB8180818770882FE3
:1017D00090E0880F991FFC01E857FE4F0190F081BF
:1017E000E02D4081EA81FB818081869586958695F2
:1017F0008770282F30E081E090E0022E02C0880F31
:10180000991F0A94E2F7809584238C9335C0EA816E
:10181000FB8180818074882379F1EA81FB8180815A
:101820008770882F90E0880F991FFC01E857FE4FC2
:10183000A081B181EA81FB8180818770882F90E04F
:10184000880F991FFC01E857FE4F0190F081E02DB1
:101850004081EA81FB818081869586958695877097
:10186000282F30E081E090E0022E02C0880F991FFF
:101870000A94E2F7842B8C9389810F900F900F903C
:10188000CF91DF910895DF93CF9300D00F92CDB722
:10189000DEB79B838A8381E089838A819B8100975D
:1018A00011F4198212C08A819B810E94BE0B898328
:1018B000EA81FB818081881F8827881F282F8A81E1
:1018C0009B81622F0E94AD0C898389810F900F90BC
:1018D0000F90CF91DF910895DF93CF9300D000D088
:1018E0000F92CDB7DEB79B838A837D836C8381E0C3
:1018F00089838A819B81009711F4198225C0EA812E
:10190000FB8180818770882F90E0880F991FFC01F0
:10191000E857FE4F0190F081E02D8081282F30E0C4
:10192000EA81FB8180818695869586958770882FD0
:1019300090E0A90102C0559547958A95E2F7CA0142
:101940008170EC81FD81808389810F900F900F90D1
:101950000F900F90CF91DF910895DF93CF9300D038
:1019600000D0CDB7DEB79B838A836C8381E0898307
:101970008A819B81009711F4198266C08C81813025
:1019800081F5EA81FB8180818770882F90E0880F44
:10199000991FFC01E057FE4FA081B181EA81FB81D4
:1019A00080818770882F90E0880F991FFC01E05795
:1019B000FE4F0190F081E02D4081EA81FB81808122
:1019C0008695869586958770282F30E081E090E097
:1019D000022E02C0880F991F0A94E2F7842B8C9381
:1019E00033C08C81882381F5EA81FB8180818770F7
:1019F000882F90E0880F991FFC01E057FE4FA081CF
:101A0000B181EA81FB8180818770882F90E0880F07
:101A1000991FFC01E057FE4F0190F081E02D4081BD
:101A2000EA81FB8180818695869586958770282F2F
:101A300030E081E090E0022E02C0880F991F0A94E6
:101A4000E2F7809584238C9389810F900F900F90FB
:101A50000F90CF91DF910895DF93CF9300D000D006
:101A60000F92CDB7DEB79B838A837D836C8381E041
:101A700089838A819B81009711F4198225C0EA81AC
:101A8000FB8180818770882F90E0880F991FFC016F
:101A9000E856FE4F0190F081E02D8081282F30E044
:101AA000EA81FB8180818695869586958770882F4F
:101AB00090E0A90102C0559547958A95E2F7CA01C1
:101AC0008170EC81FD81808389810F900F900F9050
:101AD0000F900F90CF91DF910895DF93CF9300D0B7
:101AE0000F92CDB7DEB79B838A8381E089838A8199
:101AF0009B81009711F419822FC0EA81FB818081BC
:101B00008770882F90E0880F991FFC01E057FE4FE7
:101B1000A081B181EA81FB8180818770882F90E06C
:101B2000880F991FFC01E057FE4F0190F081E02DD6
:101B30004081EA81FB8180818695869586958770B4
:101B4000282F30E081E090E0022E02C0880F991F1C
:101B50000A94E2F784278C9389810F900F900F905D
:101B6000CF91DF910895DF93CF9300D00F92CDB73F
:101B7000DEB79B838A8381E089838A819B8100977A
:101B800011F4198265C0EA81FB8180818770882FFA
:101B900090E0880F991FFC01E857FE4FA081B181AA
:101BA000EA81FB8180818770882F90E0880F991FE0
:101BB000FC01E857FE4F0190F081E02D4081EA8161
:101BC000FB8180818695869586958770282F30E0E9
:101BD00081E090E002C0880F991F2A95E2F7809576
:101BE00084238C93EA81FB8180818770882F90E029
:101BF000880F991FFC01E057FE4FA081B181EA8157
:101C0000FB8180818770882F90E0880F991FFC01ED
:101C1000E057FE4F0190F081E02D4081EA81FB8189
:101C200080818695869586958770282F30E081E0A3
:101C300090E0022E02C0880F991F0A94E2F7842BCD
:101C40008C93A0E5B0E0E0E5F0E080818B7F8C93A1
:101C500089810F900F900F90CF91DF910895DF93BE
:101C6000CF9300D00F92CDB7DEB79B838A8381E0FC
:101C700089838A819B81009711F4198230C0EA819F
:101C8000FB8180818770882F90E0880F991FFC016D
:101C9000E057FE4FA081B181EA81FB81808187708E
:101CA000882F90E0880F991FFC01E057FE4F0190AC
:101CB000F081E02D4081EA81FB81808186958695C7
:101CC00086958770282F30E081E090E0022E02C0D8
:101CD000880F991F0A94E2F7809584238C93898159
:101CE0000F900F900F90CF91DF910895DF93CF93D6
:101CF00000D00F92CDB7DEB78A836B8381E08983F2
:101D00008A81843010F019820DC08A81882F90E07A
:101D1000880F991FFC01E857FE4F0190F081E02DDC
:101D20008B81808389810F900F900F90CF91DF91ED
:101D30000895DF93CF9300D000D0CDB7DEB78A836C
:101D40006B834C8381E089838A81843010F019820F
:101D50001AC08A81882F90E0880F991FFC01E857EC
:101D6000FE4F0190F081E02D8B8180838A81882F46
:101D700090E0880F991FFC01E057FE4F0190F08121
:101D8000E02D8C81808389810F900F900F900F90B0
:101D9000CF91DF910895DF93CF9300D000D0CDB7DE
:101DA000DEB78A837C836B8381E089838A81843078
:101DB00010F019820FC08A81882F90E0880F991F38
:101DC000FC01E857FE4F0190F081E02D8081EB810E
:101DD000FC81808389810F900F900F900F90CF919D
:101DE000DF910895DF93CF9300D00F92CDB7DEB788
:101DF0008A836B8381E089838A81843010F0198221
:101E00000DC08A81882F90E0880F991FFC01E05750
:101E1000FE4F0190F081E02D8B81808389810F90AE
:101E20000F900F90CF91DF910895DF93CF9300D063
:101E300000D0CDB7DEB78A837C836B8381E0898352
:101E40008A81843010F019820FC08A81882F90E037
:101E5000880F991FFC01E856FE4F0190F081E02D9C
:101E60008081EB81FC81808389810F900F900F909E
:101E70000F90CF91DF910895DF93CF9300D0CDB72E
:101E8000DEB78A8381E089838A81843010F01982E9
:101E900018C08A81882F90E0880F991FFC01E057B5
:101EA000FE4FA081B1818A81882F90E0880F991F11
:101EB000FC01E057FE4F0190F081E02D808180957C
:101EC0008C9389810F900F90CF91DF910895DF93CC
:101ED000CF9300D000D0CDB7DEB78A8381E089836D
:101EE0008A81843010F0198238C08A81882F90E06E
:101EF000880F991FFC01E857FE4F0190F081E02DFB
:101F000080818A81882F90E0880F991FFC01E85713
:101F1000FE4F0190F081E02D10828A81882F90E0A1
:101F2000880F991FFC01E057FE4F0190F081E02DD2
:101F300080818A81882F90E0880F991FFC01E057EB
:101F4000FE4F0190F081E02D8FEF8083A0E5B0E09F
:101F5000E0E5F0E080818B7F8C9389810F900F907A
:101F60000F900F90CF91DF910895DF93CF9300D022
:101F7000CDB7DEB78A8381E089838A81843010F00F
:101F800019820CC08A81882F90E0880F991FFC016C
:101F9000E057FE4F0190F081E02D108289810F9073
:101FA0000F90CF91DF910895DF93CF93CDB7DEB738
:101FB00081EA91E00E9417078093A00184EA91E0F2
:101FC0000E94BE098093A0018091A001CF91DF9172
:101FD0000895DF93CF93CDB7DEB7E8970FB6F894A7
:101FE000DEBF0FBECDBF98AF8FAB1EAA1DAA8FA9B3
:101FF00098AD009711F41EAA04C28FA998AD0E9453
:10200000430C8EAB8FA998AD01960E94430C8EAB0A
:102010001DAA10C08FA998AD9C012E5F3F4F8DA9BE
:10202000882F90E0820F931F0E94430C8EAB8DA9E6
:102030008F5F8DAB8DA9843068F380E090E0A0EADB
:10204000B1E489AB9AABABABBCAB69A97AA98BA95C
:102050009CA920E030E04AEF54E40E941F02DC011A
:10206000CB018DA79EA7AFA7B8AB6DA57EA58FA509
:1020700098A920E030E040E85FE30E94250488232F
:102080002CF481E090E09CA78BA73FC06DA57EA5B6
:102090008FA598A920E03FEF4FE757E40E94C503C2
:1020A00018164CF569A97AA98BA99CA920E030E003
:1020B00040E251E40E941F02DC01CB01BC01CD01D2
:1020C0000E944900DC01CB019CA78BA70FC088ECC4
:1020D00090E09AA789A789A59AA50197F1F79AA7F1
:1020E00089A78BA59CA501979CA78BA78BA59CA5D1
:1020F000009769F714C06DA57EA58FA598A90E94C9
:102100004900DC01CB019CA78BA78BA59CA598A7B8
:102110008FA38FA198A50197F1F798A78FA38FA9F7
:1021200098AD68E30E940B128EAB80E090E0A0EACD
:10213000B0E48BA39CA3ADA3BEA36BA17CA18DA196
:102140009EA120E030E04AEF54E40E941F02DC012F
:10215000CB018F8F98A3A9A3BAA36F8D78A189A172
:102160009AA120E030E040E85FE30E942504882344
:102170002CF481E090E09E8F8D8F3FC06F8D78A111
:1021800089A19AA120E03FEF4FE757E40E94C503E1
:1021900018164CF56BA17CA18DA19EA120E030E02A
:1021A00040E251E40E941F02DC01CB01BC01CD01E1
:1021B0000E944900DC01CB019E8F8D8F0FC088ECFF
:1021C00090E09C8F8B8F8B8D9C8D0197F1F79C8F6E
:1021D0008B8F8D8D9E8D01979E8F8D8F8D8D9E8D7A
:1021E000009769F714C06F8D78A189A19AA10E9408
:1021F0004900DC01CB019E8F8D8F8D8D9E8D9A8F36
:10220000898F898D9A8D0197F1F79A8F898F8FA980
:1022100098AD68E30E940B128EAB80E090E0A6E1DF
:10222000B3E48D8B9E8BAF8BB88F6D897E898F8940
:10223000988D2BEA3AEA4AE250E40E941F02DC0140
:10224000CB01898B9A8BAB8BBC8B69897A898B8903
:102250009C8920E030E040E85FE30E942504882369
:102260001CF481E0888B91C069897A898B899C896B
:1022700020E030E04FE753E40E94C50318160CF04D
:102280007BC06D897E898F89988D20E030E04AE798
:1022900054E40E941903DC01CB018C879D87AE8733
:1022A000BF876C857D858E859F8520E030E04AEF75
:1022B00054E40E941F02DC01CB0188879987AA871A
:1022C000BB87688579858A859B8520E030E040E87A
:1022D0005FE30E94250488232CF481E090E09F8333
:1022E0008E833FC0688579858A859B8520E03FEF96
:1022F0004FE757E40E94C50318164CF56C857D85A1
:102300008E859F8520E030E040E251E40E941F026C
:10231000DC01CB01BC01CD010E944900DC01CB01F5
:102320009F838E830FC088EC90E09D838C838C818B
:102330009D810197F1F79D838C838E819F81019709
:102340009F838E838E819F81009769F724C0688563
:1023500079858A859B850E944900DC01CB019F839A
:102360008E838E819F819B838A838A819B81019743
:10237000F1F79B838A830FC069897A898B899C894D
:102380000E944900DC01CB01888B8889898389817F
:102390008A95F1F789838FA998AD68E30E940B12A3
:1023A0008EAB8FA998AD62E00E9482158EAB8FA98B
:1023B00098AD68E00E940B128EAB8FA998AD61E0DA
:1023C0000E940B128EAB8FA998AD62E00E940B1297
:1023D0008EAB8FA998AD66E00E940B128EAB8FA9D1
:1023E00098AD6CE00E940B128EAB8FA998AD60E89F
:1023F0000E940B128EAB8FA998AD68E20E940B125F
:102400008EAB8EA9E8960FB6F894DEBF0FBECDBF97
:10241000CF91DF910895DF93CF9300D000D0CDB757
:10242000DEB79B838A836C8319828A819B810097A4
:1024300011F4198220C08A819B8160E00E94AD0C5A
:1024400089838C81282F22952F708A819B81622F0E
:102450000E94821589838A819B810E94BE1589838F
:102460008A819B816C810E94821589838A819B81EC
:102470000E94BE15898389810F900F900F900F9055
:10248000CF91DF910895DF93CF9300D000D0CDB7E7
:10249000DEB79B838A836C8319828A819B81009734
:1024A00011F4198220C08A819B8161E00E94AD0CE9
:1024B00089838C81282F22952F708A819B81622F9E
:1024C0000E94821589838A819B810E94BE1589831F
:1024D0008A819B816C810E94821589838A819B817C
:1024E0000E94BE15898389810F900F900F900F90E5
:1024F000CF91DF910895DF93CF9300D000D000D02B
:10250000CDB7DEB79B838A836C834D832E8319827C
:102510008A819B81009711F419820DC08A819B8169
:102520006C814D810E940F1589838A819B816E8108
:102530000E9443128983898126960FB6F894DEBFE4
:102540000FBECDBFCF91DF910895DF93CF9300D021
:1025500000D000D0CDB7DEB79C838B837E836D83A4
:102560001A8219828B819C810097A1F41A821DC066
:102570008981282F30E08D819E81FC01E20FF31FBD
:1025800020818B819C81622F0E9443128A838981E2
:102590008F5F89838981282F30E08D819E81FC01A6
:1025A000E20FF31F8081882319F78A8126960FB6E0
:1025B000F894DEBF0FBECDBFCF91DF910895DF93BA
:1025C000CF93CDB7DEB728970FB6F894DEBF0FBE16
:1025D000CDBF9C838B836D834E8338872F831A8274
:1025E00019828B819C81009721F08F8198850097BB
:1025F00011F41A8225C08B819C816D814E810E94CD
:102600000F158A8312C08981282F30E08F81988529
:10261000FC01E20FF31F20818B819C81622F0E94BD
:1026200043128A8389818F5F89838981282F30E0D3
:102630008F819885FC01E20FF31F8081882319F7B1
:102640008A8128960FB6F894DEBF0FBECDBFCF911A
:10265000DF9108950F93DF93CF93CDB7DEB729971E
:102660000FB6F894DEBF0FBECDBF9C838B836D8306
:102670004E8338872F8309871A8219828B819C8128
:10268000009711F41A8230C08985882F90E008964F
:10269000880F991F880F991F880F991F282F8B81EA
:1026A0009C81622F0E940B128A83198212C0898139
:1026B000282F30E08F819885FC01E20FF31F2081E5
:1026C0008B819C81622F0E9443128A8389818F5F54
:1026D00089838981883058F38B819C816D814E81FB
:1026E00029850E947B128A838A8129960FB6F894E5
:1026F000DEBF0FBECDBFCF91DF910F910895DF9365
:10270000CF9300D000D000D0CDB7DEB79B838A83B3
:102710006C834D8319820DC02A813B818981882F6A
:1027200090E0F901E80FF91F8C81808389818F5F28
:1027300089838D818E838E81882311F081E08E8341
:102740008E819D8191509D83882331F78A819B8161
:1027500026960FB6F894DEBF0FBECDBFCF91DF91A6
:102760000895DF93CF9300D000D000D0CDB7DEB76F
:102770008C837E836D831B821A8284E689838D819C
:102780009E81009711F41B8239C081E08B838D817B
:102790009E8160E044E00E947F139E838D838C8144
:1027A000882349F5ED81FE8180E3808327C08C81F9
:1027B0009981692F0E946B188823B9F08A81282F8C
:1027C00030E08D819E81FC01E20FF31F8C819981A5
:1027D000692F0E946B189AE0692F0E946B18892F4D
:1027E000805D80838A818F5F8A8389819AE0692FE7
:1027F0000E946B18898389818823C9F68B8126966C
:102800000FB6F894DEBF0FBECDBFCF91DF91089514
:10281000DF93CF93CDB7DEB728970FB6F894DEBF1E
:102820000FBECDBF9E838D8378876F831C821B82F2
:1028300080E197E29A8389838F819885009711F4CC
:102840001C824AC081E08C838F81988560E245E0DC
:102850000E947F1398878F838F819885FC0135961E
:1028600010828D819E81009799F5EF81F88580E334
:10287000808332C08D819E8129813A81B9010E9475
:102880007718CB010097D1F08B81282F30E08F8112
:102890009885FC01E20FF31F8D819E8129813A8189
:1028A000B9010E947718CB012AE030E0B9010E94FB
:1028B0007718805D80838B818F5F8B8389819A817C
:1028C0002AE030E0B9010E947718CB019A8389830E
:1028D00089819A81009771F68C8128960FB6F894B9
:1028E000DEBF0FBECDBFCF91DF9108950F931F9331
:1028F000DF93CF93CDB7DEB72C970FB6F894DEBF3A
:102900000FBECDBF6F83788789879A875C874B8797
:102910001E821D8280E09AECAAE9BBE389839A8338
:10292000AB83BC838B859C85009711F41E826BC0A2
:1029300081E08E838B859C8560E04BE00E947F1355
:102940009C878B878F819885A985BA850097A1057B
:10295000B10509F04FC0EB85FC8580E3808353C04F
:102960008F819885A985BA8529813A814B815C81BF
:10297000BC01CD010E948B18DA01C9010097A105A5
:10298000B10531F18D81282F30E08B859C858C013C
:10299000020F131F8F819885A985BA8529813A81F5
:1029A0004B815C81BC01CD010E948B18DA01C90109
:1029B0002AE030E040E050E0BC01CD010E948B18DD
:1029C000DC01CB01805DF80180838D818F5F8D8379
:1029D00089819A81AB81BC812AE030E040E050E0FF
:1029E000BC01CD010E948B18DA01C90189839A8349
:1029F000AB83BC8389819A81AB81BC810097A1059F
:102A0000B10509F0ADCF8E812C960FB6F894DEBFDC
:102A10000FBECDBFCF91DF911F910F910895DF932E
:102A2000CF93CDB7DEB72B970FB6F894DEBF0FBEAE
:102A3000CDBF9F838E836887498781E08D83898599
:102A4000815089871C8280E48B8384E18A8384E5BA
:102A500089838885282F30E03B872A878A859B8554
:102A60008230910511F12A853B852330310534F4FC
:102A70008A859B858130910561F03AC02A853B8526
:102A800023303105F1F08A859B858430910529F149
:102A90002FC09C818985890F282F20588E819F8186
:102AA000622F0E940B128D8323C09B818985890F21
:102AB000282F20588E819F81622F0E940B128D83B8
:102AC00017C09A818985890F282F20588E819F8170
:102AD000622F0E940B128D830BC099818985890F0B
:102AE000282F20588E819F81622F0E940B128D8388
:102AF0008D812B960FB6F894DEBF0FBECDBFCF9160
:102B0000DF910895DF93CF9300D000D00F92CDB71F
:102B1000DEB79C838B836D831A821982198222C04F
:102B20008B819C819C012E5F3F4F8981882F90E093
:102B3000A901480F591F8D81282F30E08981882FE6
:102B400090E0B90102C0759567958A95E2F7CB01CF
:102B5000282F2170CA01622F0E94AD0C8A838981BF
:102B60008F5F898389818430D8F28A810F900F909A
:102B70000F900F900F90CF91DF910895DF93CF9337
:102B8000CDB7DEB76B970FB6F894DEBF0FBECDBFE3
:102B90009B8F8A8F81E0898F8A8D9B8D019661E062
:102BA0000E94AD0C898F80E090E0A0EAB0E48D8BAC
:102BB0009E8BAF8BB88F6D897E898F89988D2BEA1C
:102BC0003AEA4AE250E40E941F02DC01CB01898B01
:102BD0009A8BAB8BBC8B69897A898B899C8920E025
:102BE00030E040E85FE30E94250488231CF481E084
:102BF000888B91C069897A898B899C8920E030E033
:102C00004FE753E40E94C50318160CF07BC06D8992
:102C10007E898F89988D20E030E04AE754E40E9455
:102C20001903DC01CB018C879D87AE87BF876C853C
:102C30007D858E859F8520E030E04AEF54E40E9438
:102C40001F02DC01CB0188879987AA87BB8768852B
:102C500079858A859B8520E030E040E85FE30E942B
:102C6000250488232CF481E090E09F838E833FC06D
:102C7000688579858A859B8520E03FEF4FE757E49B
:102C80000E94C50318164CF56C857D858E859F8541
:102C900020E030E040E251E40E941F02DC01CB0161
:102CA000BC01CD010E944900DC01CB019F838E83D2
:102CB0000FC088EC90E09D838C838C819D8101976F
:102CC000F1F79D838C838E819F8101979F838E83F3
:102CD0008E819F81009769F724C0688579858A85F0
:102CE0009B850E944900DC01CB019F838E838E81EE
:102CF0009F819B838A838A819B810197F1F79B83C4
:102D00008A830FC069897A898B899C890E944900CE
:102D1000DC01CB01888B8889898389818A95F1F7C9
:102D200089838A8D9B8D019660E00E94AD0C898F0E
:102D3000898D6B960FB6F894DEBF0FBECDBFCF91D5
:102D4000DF910895DF93CF9300D00F92CDB7DEB718
:102D50009B838A8381E089838A819B81009711F418
:102D600019820EC08A819B810E94430C89838A81CB
:102D70009B8101960E94430C982F89818923898326
:102D800089810F900F900F90CF91DF910895DF937D
:102D9000CF93CDB7DEB76B970FB6F894DEBF0FBEFB
:102DA000CDBF9B8F8A8F81E0898F8A8D9B8D009705
:102DB00011F4198ECAC08A8D9B8D61E00E94AD0C02
:102DC000898F80E090E0A0E2B1E48D8B9E8BAF8B89
:102DD000B88F6D897E898F89988D2BEA3AEA4AE20D
:102DE00050E40E941F02DC01CB01898B9A8BAB8BD4
:102DF000BC8B69897A898B899C8920E030E040E826
:102E00005FE30E94250488231CF481E0888B91C035
:102E100069897A898B899C8920E030E04FE753E407
:102E20000E94C50318160CF07BC06D897E898F89BE
:102E3000988D20E030E04AE754E40E941903DC0159
:102E4000CB018C879D87AE87BF876C857D858E85FE
:102E50009F8520E030E04AEF54E40E941F02DC012D
:102E6000CB0188879987AA87BB87688579858A85FA
:102E70009B8520E030E040E85FE30E942504882342
:102E80002CF481E090E09F838E833FC06885798534
:102E90008A859B8520E03FEF4FE757E40E94C503FA
:102EA00018164CF56C857D858E859F8520E030E079
:102EB00040E251E40E941F02DC01CB01BC01CD01C4
:102EC0000E944900DC01CB019F838E830FC088ECF8
:102ED00090E09D838C838C819D810197F1F79D8388
:102EE0008C838E819F8101979F838E838E819F81AA
:102EF000009769F724C0688579858A859B850E943B
:102F00004900DC01CB019F838E838E819F819B834F
:102F10008A838A819B810197F1F79B838A830FC003
:102F200069897A898B899C890E944900DC01CB01DF
:102F3000888B8889898389818A95F1F789838A8D2D
:102F40009B8D60E00E94AD0C898F898D6B960FB6CA
:102F5000F894DEBF0FBECDBFCF91DF910895DF9310
:102F6000CF9300D0CDB7DEB79A83898389819A81C8
:102F7000CC01A0E0B0E0BC01CD010E94A904DC01BD
:102F8000CB01BC01CD0123E333E34BE652E40E94C5
:102F90001903DC01CB01BC01CD010E944900DC0119
:102FA000CB010F900F90CF91DF910895DF93CF93D6
:102FB000CDB7DEB789EA91E00E94E90F8093A001C6
:102FC0008FEA91E00E94A2168093A00189EA91E025
:102FD00020E630E0B9010E94A5128093A00189EAA1
:102FE00091E060EC0E940B128093A00189EA91E0CD
:102FF00025E730E0B9010E94A5128093A0018091DD
:10300000A001CF91DF910895DF93CF93CDB7DEB7C5
:103010000E942A188091BB019091BC010E94AF17B9
:103020009093C4018093C3018091C3019091C40126
:103030002DEB31E0B9010E9408148093A00189EAC8
:1030400091E02DEB31E062E04BE00E94DF128093D3
:10305000A001E0CFDF93CF93CDB7DEB70E94D617A4
:103060008093A0010E94D40F8093A001CF91DF91A3
:103070000895DF93CF93CDB7DEB78FEA91E00E943A
:10308000C7168093A001CF91DF910895DF93CF936E
:10309000CDB7DEB78091BA018F5F8093BA0180917E
:1030A000BA01823061F48BEB91E00E947E0A80933A
:1030B000A00181E00E944C0A1092BA0109C08091DF
:1030C000BA01813029F40E94A90A80E00E944C0ACA
:1030D000CF91DF910895991B79E004C0991F96174D
:1030E00008F0961B881F7A95C9F780950895AA1B4A
:1030F000BB1B51E107C0AA1FBB1FA617B70710F0E3
:10310000A61BB70B881F991F5A95A9F78095909514
:10311000BC01CD010895A1E21A2EAA1BBB1BFD0123
:103120000DC0AA1FBB1FEE1FFF1FA217B307E407A6
:10313000F50720F0A21BB30BE40BF50B661F771FFE
:10314000881F991F1A9469F76095709580959095DE
:103150009B01AC01BD01CF0108952F923F924F9288
:103160005F926F927F928F929F92AF92BF92CF9217
:10317000DF92EF92FF920F931F93CF93DF93CDB720
:10318000DEB7CA1BDB0B0FB6F894DEBF0FBECDBF98
:1031900009942A88398848885F846E847D848C8469
:1031A0009B84AA84B984C884DF80EE80FD800C8172
:1031B0001B81AA81B981CE0FD11D0FB6F894DEBF55
:0C31C0000FBECDBFED010895F894FFCFC5
:1031CC0044697374616E6365204D656173757265D6
:1031DC006D656E740044697374616E63653D2000A7
:1031EC0000000000000000000001020203030303C2
:1031FC00040404040404040405050505050505057B
:10320C00050505050505050506060606060606065A
:10321C000606060606060606060606060606060642
:10322C00060606060606060607070707070707072A
:10323C000707070707070707070707070707070712
:10324C000707070707070707070707070707070702
:10325C0007070707070707070707070707070707F2
:10326C0007070707070707070808080808080808DA
:10327C0008080808080808080808080808080808C2
:10328C0008080808080808080808080808080808B2
:10329C0008080808080808080808080808080808A2
:1032AC000808080808080808080808080808080892
:1032BC000808080808080808080808080808080882
:1032CC000808080808080808080808080808080872
:1032DC000808080808080808080808080808080862
:1032EC0008080808080808083A00370034003100BC
:1032FC003B00380035003200390036003300300016
:10330C00013918094618020100434B535B636B42A9
:02331C000A00A5
:00000001FF
