:100000000C942A000C9447000C9447000C94470071
:100010000C9447000C9447000C9447000C94470044
:100020000C94100C0C9447000C9447000C9447005F
:100030000C9447000C9447000C9447000C94470024
:100040000C9447000C94050D0C9447000C94470049
:100050000C94470011241FBECFE5D4E0DEBFCDBF16
:1000600011E0A0E6B0E0ECE5FBE202C005900D92E5
:10007000A83AB107D9F711E0A8EAB1E001C01D9292
:10008000A83BB107E1F70E948B130C94AC150C94BC
:100090000000EF92FF920F931F937B018C0120E0F1
:1000A00030E040E05FE40E94C50388238CF0C80183
:1000B000B70120E030E040E05FE40E94C1010E940F
:1000C000F5039B01AC01205030404040504806C031
:1000D000C801B7010E94F5039B01AC01B901CA0137
:1000E0001F910F91FF90EF900895A0E0B0E0EBE733
:1000F000F0E00C947515DC012B01FA019C91923013
:1001000008F439C1EB018881823008F433C194309E
:1001100069F4843009F02FC111969C91119789815F
:10012000981709F428C1A0E6B0E025C1843009F48D
:1001300021C18230A9F4923009F01DC19A01AD01AC
:1001400088E0EA010990AE01E90109929E0181501F
:10015000C1F7E201898111969C918923818308C1AD
:10016000923009F407C112962D903C901397EB0141
:100170008A819B811496AD90BD90CD90DC901797AD
:10018000EC80FD800E811F819101281B390BB90184
:1001900037FF04C066277727621B730B6032710537
:1001A0000CF061C0121613066CF537014801062EDB
:1001B00004C096948794779467940A94D2F721E0C8
:1001C00030E040E050E004C0220F331F441F551FB1
:1001D0006A95D2F721503040404050402E213F21B7
:1001E00040235123211531054105510521F021E01E
:1001F00030E040E050E079018A01E628F72808293C
:1002000019293CC0232BD1F1260E371E350146019A
:10021000062E04C096948794779467940A94D2F734
:1002200021E030E040E050E004C0220F331F441FC3
:10023000551F6A95D2F721503040404050402A2146
:100240003B214C215D21211531054105510521F04E
:1002500021E030E040E050E059016A01A628B728CB
:10026000C828D9280BC0821593052CF01C01AA249C
:10027000BB24650103C0EE24FF24870111969C91E5
:10028000D20111968C91981709F445C0992339F041
:10029000A80197012A193B094C095D0906C0A6016E
:1002A00095012E193F09400B510B57FD08C01182D3
:1002B0003382228224833583468357831DC081E0A5
:1002C00081833382228288279927DC01821B930B4A
:1002D000A40BB50B84839583A683B7830DC0220F2F
:1002E000331F441F551F24833583468357838281E0
:1002F000938101979383828324813581468157813D
:10030000DA01C9010197A109B1098F5F9F4FAF4F72
:10031000BF4328F30BC0918333822282EA0CFB1C7B
:100320000C1D1D1DE482F5820683178383E0808304
:10033000248135814681578157FF1AC0C901AA27F8
:1003400097FDA095BA2F81709070A070B0705695EF
:10035000479537952795822B932BA42BB52B848318
:100360009583A683B7838281938101969383828349
:10037000DF0101C0D201CD01CDB7DEB7E2E10C94BF
:100380009115A0E2B0E0E7ECF1E00C9481156983EF
:100390007A838B839C832D833E834F835887E9E048
:1003A000EE2EF12CEC0EFD1ECE010196B7010E943F
:1003B000E6058E010F5E1F4FCE010596B8010E9423
:1003C000E6058A8991E089278A8BC701B801AE01C9
:1003D000475E5F4F0E9475000E941105A096E6E0FF
:1003E0000C949D15A0E2B0E0E8EFF1E00C948115CB
:1003F00069837A838B839C832D833E834F835887C5
:10040000F9E0EF2EF12CEC0EFD1ECE010196B701A6
:100410000E94E6058E010F5E1F4FCE010596B801C2
:100420000E94E605C701B801AE01475E5F4F0E941A
:1004300075000E941105A096E6E00C949D15A0E2BF
:10044000B0E0E5E2F2E00C94751569837A838B8362
:100450009C832D833E834F835887CE010196BE0136
:10046000675F7F4F0E94E605CE010596BE016F5E75
:100470007F4F0E94E6059985923088F08989823005
:10048000C8F0943019F4823051F404C0843029F457
:10049000923081F480E690E0C6C0923049F420E0CA
:1004A0009A858A89981321E02A87CE010996BBC0D4
:1004B000823049F420E09A858A89981321E02A8BBA
:1004C000CE014196B0C02D843E844F8458886D88FB
:1004D0007E888F88988CEE24FF248701AA24BB2471
:1004E000650140E050E060E070E0E0E0F0E0C10174
:1004F00081709070892BE9F0E60CF71C081D191D1E
:100500009A01AB012A0D3B1D4C1D5D1D80E090E062
:10051000A0E0B0E0E614F7040805190520F481E036
:1005200090E0A0E0B0E0BA01A901480F591F6A1F8E
:100530007B1FAA0CBB1CCC1CDD1C97FE08C081E0F5
:1005400090E0A0E0B0E0A82AB92ACA2ADB2A3196B6
:10055000E032F10549F0660C771C881C991C569412
:10056000479437942794C3CFFA85EA892B893C892D
:100570008B859C85280F391F2E5F3F4F17C0CA01FE
:1005800081709070892B61F016950795F794E79428
:1005900080E090E0A0E0B0E8E82AF92A0A2B1B2BC3
:1005A00076956795579547952F5F3F4F77FDE7CF36
:1005B0000CC0440F551F661F771F17FD4160EE0CDE
:1005C000FF1C001F111F21503040403090E05907A0
:1005D00090E0690790E4790760F32B8F3C8FDB0193
:1005E000CA018F779070A070B07080349105A1051A
:1005F000B10561F447FD0AC0E114F10401051105DC
:1006000029F0405C5F4F6F4F7F4F40781A8EFE1786
:1006100011F081E08A8F4D8F5E8F6F8F78A383E01A
:10062000898FCE0149960E941105A096E2E10C94B3
:100630009115A8E1B0E0EFE1F3E00C947D1569833A
:100640007A838B839C832D833E834F835887B9E0C5
:10065000EB2EF12CEC0EFD1ECE010196B7010E948F
:10066000E6058E010F5E1F4FCE010596B8010E9470
:10067000E6052985223008F47EC03989323010F42D
:10068000B8017CC08A859A8989278A87243011F02D
:10069000223031F4231709F06EC060E670E06EC0BE
:1006A000343039F41D861E861F86188A1C861B86E8
:1006B00004C0323021F484E08987B7015FC02B8504
:1006C0003C858B899C89281B390B3C872B87ED84C3
:1006D000FE840F851889AD88BE88CF88D88CEA142F
:1006E000FB040C051D0540F4EE0CFF1C001F111F40
:1006F000215030403C872B8720E030E040E050E044
:1007000080E090E0A0E0B0E460E070E0EA14FB0478
:100710000C051D0540F0282B392B4A2B5B2BEA18C2
:10072000FB080C091D09B695A79597958795EE0CC2
:10073000FF1C001F111F6F5F7F4F6F31710531F775
:10074000DA01C9018F779070A070B0708034910584
:10075000A105B10561F427FD0AC0E114F10401050A
:10076000110529F0205C3F4F4F4F5F4F20782D87B8
:100770003E874F87588BBE01675F7F4FCB010E943A
:1007800011056896EAE00C949915A8E1B0E0EBEC4D
:10079000F3E00C94811569837A838B839C832D838A
:1007A0003E834F83588789E0E82EF12CEC0EFD1E26
:1007B000CE010196B7010E94E6058E010F5E1F4F24
:1007C000CE010596B8010E94E6058985823040F089
:1007D0008989823028F0C701B8010E945E0601C0F5
:1007E0008FEF6896E6E00C949D15ACE0B0E0EBEF7F
:1007F000F3E00C94851569837A838B839C83CE0107
:100800000196BE016B5F7F4F0E94E6058D818230AD
:1008100061F1823050F1843021F48E81882351F1CE
:100820002EC02F81388537FD20C06E812F313105D4
:100830001CF06623F9F023C08EE190E0821B930B3D
:1008400029853A854B855C8504C056954795379533
:1008500027958A95D2F76623B1F05095409530954B
:1008600021953F4F4F4F5F4F0EC020E030E040E0FA
:1008700050E009C02FEF3FEF4FEF5FE704C020E0EB
:1008800030E040E050E8B901CA012C96E2E00C9457
:10089000A115A8E0B0E0EFE4F4E00C947D157B0135
:1008A0008C01611571058105910519F482E0898338
:1008B00060C083E089838EE1C82ED12CDC82CB829C
:1008C000ED82FE820F831887C801B7010E94C2041F
:1008D000FC013197F7FF3BC0222733272E1B3F0B2C
:1008E00057016801022E04C0D694C794B794A79408
:1008F0000A94D2F740E050E060E070E081E090E0E0
:10090000A0E0B0E004C0880F991FAA1FBB1F2A9562
:10091000D2F70197A109B1098E219F21A023B1230C
:100920000097A105B10521F041E050E060E070E0E2
:100930004A295B296C297D294D835E836F837887E3
:100940008EE190E08E1B9F0B9C838B8312C03097AF
:1009500081F00E2E04C0EE0CFF1C001F111F0A9424
:10096000D2F7ED82FE820F831887CE1ADF0ADC826F
:10097000CB821A82CE0101960E9411052896EAE0E8
:100980000C949915EF92FF920F931F937B018C01AA
:1009900080E0E81680E0F80681E0080780E01807AC
:1009A00088F48FEFE816F1040105110531F028F005
:1009B00088E090E0A0E0B0E017C080E090E0A0E028
:1009C000B0E012C080E0E81680E0F80680E008079A
:1009D00081E0180728F088E190E0A0E0B0E004C0D2
:1009E00080E190E0A0E0B0E020E230E040E050E0C4
:1009F000281B390B4A0B5B0B04C016950795F7941F
:100A0000E7948A95D2F7F701E859FF4F8081281BB8
:100A1000310941095109C9011F910F91FF90EF90D0
:100A20000895DF92EF92FF920F931F93FC01E480F1
:100A3000F58006811781D1808081823048F480E082
:100A400090E0A0E1B0E0E82AF92A0A2B1B2BA5C010
:100A5000843009F49FC0823021F4EE24FF24870102
:100A600005C0E114F1040105110519F4E0E0F0E01E
:100A700096C0628173819FEF623879070CF05BC08A
:100A800022E83FEF261B370B2A3131052CF020E0FE
:100A900030E040E050E02AC0B801A701022E04C0B7
:100AA00076956795579547950A94D2F781E090E03F
:100AB000A0E0B0E004C0880F991FAA1FBB1F2A95B1
:100AC000D2F70197A109B1098E219F21A023B1235B
:100AD0000097A105B10521F081E090E0A0E0B0E031
:100AE0009A01AB01282B392B4A2B5B2BDA01C90168
:100AF0008F779070A070B07080349105A105B1051A
:100B000039F427FF09C0205C3F4F4F4F5F4F04C0AF
:100B1000215C3F4F4F4F5F4FE0E0F0E02030A0E01E
:100B20003A07A0E04A07A0E45A0710F0E1E0F0E03D
:100B300079018A0127C06038710564F5FB01E1582D
:100B4000FF4FD801C7018F779070A070B0708034CC
:100B50009105A105B10539F4E7FE0DC080E490E0F0
:100B6000A0E0B0E004C08FE390E0A0E0B0E0E80EC9
:100B7000F91E0A1F1B1F17FF05C016950795F7944E
:100B8000E794319687E016950795F794E7948A9550
:100B9000D1F705C0EE24FF248701EFEFF0E06E2FC0
:100BA000679566276795902F9F77D794DD24D79414
:100BB0008E2F8695492F462B582F5D29B701CA01E4
:100BC0001F910F91FF90EF90DF900895FC01DB01E2
:100BD000408151812281622F6F7770E0221F22278E
:100BE000221F9381892F880F822B282F30E0991F95
:100BF0009927991F11969C93119721153105A9F5F5
:100C0000411551056105710511F482E037C082E894
:100C10009FEF13969C938E9312979A01AB0167E016
:100C2000220F331F441F551F6A95D1F783E08C9321
:100C30000DC0220F331F441F551F12968D919C919A
:100C40001397019713969C938E931297203080E010
:100C5000380780E0480780E4580758F314962D932E
:100C60003D934D935C93179708952F3F310579F489
:100C7000411551056105710519F484E08C930895BF
:100C800064FF03C081E08C9312C01C9210C02F57E8
:100C9000304013963C932E93129783E08C9387E019
:100CA000440F551F661F771F8A95D1F770641496FD
:100CB0004D935D936D937C93179708951F93DC017B
:100CC000FB019C91923008F447C08081823008F487
:100CD00043C0943051F411961C91843099F5818170
:100CE000682F70E0611B71093FC0843021F09230A1
:100CF00031F48230B9F18181882389F12DC01196B8
:100D00001C9111978230F1F081811817D9F4129655
:100D10002D913C911397828193818217930794F0D0
:100D200028173907BCF014968D919D910D90BC91B8
:100D3000A02D2481358146815781281739074A071C
:100D40005B0718F4112341F00AC082179307A40728
:100D5000B50740F4112319F061E070E005C06FEFB2
:100D60007FEF02C060E070E0CB011F910895DF9338
:100D7000CF9300D00F92CDB7DEB79B838A8381E0FB
:100D800089838A819B81009711F419823EC0EAE22F
:100D9000F0E01082EA81FB81278130854185528510
:100DA000EA81FB8185818370E82FCA01B9014E2F4A
:100DB0000E940708EA81FB81848182958F70282F29
:100DC000EA81FB818581869586958370982F822F95
:100DD000692F0E94CD08EA81FB818481817088237C
:100DE00039F0AAE2B0E0EAE2F0E0808180618C9321
:100DF000EA81FB8184818470882339F0AAE2B0E023
:100E0000EAE2F0E0808188608C9389810F900F90F6
:100E10000F90CF91DF910895DF93CF9300D0CDB79E
:100E2000DEB78A8381E08983EBE2F0E080818295FE
:100E300086958770882F90E0817090700097A1F35D
:100E4000ECE2F0E08A818083EBE2F0E08081829541
:100E5000869586958370882F90E0817090700097BA
:100E600099F3ABE2B0E0EBE2F0E0808180648C9338
:100E700089810F900F90CF91DF910895DF93CF93E9
:100E800000D000D00F92CDB7DEB79B838A837D83DD
:100E90006C8381E089838A819B81009721F08C811A
:100EA0009D81009711F4198225C0EBE2F0E080816A
:100EB0008823DCF7EBE2F0E08081EA81FB81868326
:100EC000EA81FB8186818870882361F4EA81FB8155
:100ED00086818071882331F4EA81FB818681847068
:100EE000882311F0198206C0ECE2F0E08081EC81E9
:100EF000FD81808389810F900F900F900F900F904C
:100F0000CF91DF910895DF93CF9300D000D0CDB77C
:100F1000DEB79C838B8381E08A8319820EC089812E
:100F2000282F30E08B819C81FC01E20FF31F808130
:100F30000E940C0789818F5F89838981282F30E087
:100F40008B819C81FC01E20FF31F8081882339F79C
:100F50008A810F900F900F900F90CF91DF9108959D
:100F6000DF93CF9300D000D000D0CDB7DEB79C8305
:100F70008B837E836D8381E08A8319828B819C8140
:100F8000009721F08D819E81009711F41A8235C05F
:100F90008981282F30E08D819E81280F391F8B8118
:100FA0009C81B9010E943E078A8313C089818F5FAB
:100FB00089838981282F30E08D819E81280F391FF8
:100FC0008B819C81B9010E943E078A838A81882394
:100FD00059F08981282F30E08D819E81FC01E20F3C
:100FE000F31F8081833211F78981282F30E08D81B2
:100FF0009E81FC01E20FF31F10828A8126960FB6B4
:10100000F894DEBF0FBECDBFCF91DF910895DF937F
:10101000CF93CDB7DEB729970FB6F894DEBF0FBEDA
:10102000CDBF6B837C838D839E834F831A8219820D
:101030008F81282F30E039872887888599858130EE
:10104000910579F1288539852230310509F05DC097
:10105000A0E4B0E0E0E4F0E08081806C8C936B81F0
:101060007C818D819E810E9449049B01AC01CA0153
:10107000B9010E94F201DC01CB019C01AD0160E0ED
:1010800074E284EF9AE40E941903DC01CB01BC01F5
:10109000CD010E944900DC01CB0101979A8389832D
:1010A00067C0A0E4B0E0E0E4F0E0808180688C9369
:1010B000ABE2B0E0EBE2F0E0808182608C936B8188
:1010C0007C818D819E810E944904DC01CB01BC01A1
:1010D000CD0120E030E040E051E40E941F02DC013D
:1010E000CB019C01AD0160E074E284EF9AE40E94C0
:1010F0001903DC01CB01BC01CD010E944900DC01D8
:10110000CB0101979A83898333C0A0E4B0E0E0E487
:10111000F0E0808180688C93ABE2B0E0EBE2F0E03D
:1011200080818D7F8C936B817C818D819E810E94DB
:101130004904DC01CB01BC01CD0120E030E040E8F6
:1011400051E40E941F02DC01CB019C01AD0160E073
:1011500074E284EF9AE40E941903DC01CB01BC0124
:10116000CD010E944900DC01CB0101979A8389835C
:10117000E9E2F0E089818083E0E4F0E089819A810E
:10118000892F99278F70808329960FB6F894DEBF38
:101190000FBECDBFCF91DF910895DF93CF9300D0E5
:1011A00000D000D0CDB7DEB789836A83A0E4B0E079
:1011B000E0E4F0E0808180688C938A81282F30E021
:1011C0003E832D838D819E818230910531F02D816A
:1011D0003E812330310549F010C0A0E4B0E0E0E4E6
:1011E000F0E08081806A8C930FC0A0E4B0E0E0E47E
:1011F000F0E08081806B8C9307C0A0E4B0E0E0E475
:10120000F0E0808180688C938981282F30E03C83D6
:101210002B838B819C818630910529F12B813C8128
:101220002730310534F48B819C818530910561F044
:1012300047C02B813C812730310521F18B819C8176
:101240008930910571F13CC0A0E4B0E0E0E4F0E049
:10125000808180688C93AAE2B0E0EAE2F0E08081CD
:101260008B7F8C933BC0A0E4B0E0E0E4F0E08081B1
:1012700082688C93AAE2B0E0EAE2F0E080818B7FA2
:101280008C932CC0A0E4B0E0E0E4F0E080818468BE
:101290008C93AAE2B0E0EAE2F0E080818B7F8C934D
:1012A0001DC0A0E4B0E0E0E4F0E0808186688C93AB
:1012B000AAE2B0E0EAE2F0E0808184608C930EC0A4
:1012C000A0E4B0E0E0E4F0E0808186688C93AAE2DC
:1012D000B0E0EAE2F0E080818B7F8C9326960FB637
:1012E000F894DEBF0FBECDBFCF91DF910895DF939D
:1012F000CF9300D00F92CDB7DEB79B838A8381E076
:1013000089838A819B81009711F4198224C0EFE4BC
:10131000F0E01082EEE4F0E01082AFE5B0E0EFE53F
:10132000F0E0808180688C93A9E5B0E0E9E5F0E029
:10133000808184608C93EA81FB818081918190938C
:10134000A9018093A8018A819B810E94370A8A8122
:101350009B810E94290B89810F900F900F90CF9154
:10136000DF910895DF93CF9300D00F92CDB7DEB712
:101370009B838A8381E089838A819B81009711F412
:1013800019820DC0EEE4F0E01082EFE4F0E010828C
:10139000A9E5B0E0E9E5F0E080818B7F8C9389815D
:1013A0000F900F900F90CF91DF910895DF93CF931F
:1013B00000D000D00F92CDB7DEB79B838A837D83A8
:1013C0006C8381E089838A819B81009711F4198263
:1013D0000BC0EDE4F0E08C819D81892F99278083FB
:1013E000ECE4F0E08C81808389810F900F900F9066
:1013F0000F900F90CF91DF910895DF93CF9300D09E
:1014000000D00F92CDB7DEB79B838A837D836C8338
:1014100081E089838A819B81009721F08C819D8165
:10142000009711F419821AC0ECE4F0E08081882F53
:1014300090E0EC81FD8191838083EC81FD812081AE
:101440003181EDE4F0E08081882F90E0982F8827AB
:10145000822B932BEC81FD819183808389810F9076
:101460000F900F900F900F90CF91DF910895DF9321
:10147000CF9300D000D00F92CDB7DEB79B838A8385
:1014800081E08983EA81FB8182818F70282F30E09F
:101490003D832C838C819D818730910509F474C034
:1014A0002C813D81283031052CF58C819D81833044
:1014B000910509F494C02C813D81243031056CF4F0
:1014C0008C819D818130910509F479C02C813D8109
:1014D0002230310509F47BC0ADC08C819D818530FF
:1014E000910509F43FC02C813D81263031050CF077
:1014F00042C028C08C819D818B30910509F480C049
:101500002C813D812C3031056CF48C819D8189309A
:10151000910509F486C02C813D812A3031050CF0FB
:1015200066C077C08C819D818E309105B1F12C8190
:101530003D812F303105D1F18C819D818C30910519
:1015400049F078C0EFE4F0E01082EEE4F0E088E1EA
:10155000808376C0EFE4F0E01082EEE4F0E088E013
:1015600080836EC0EFE4F0E081E08083EEE4F0E0A1
:1015700088E0808365C0EFE4F0E082E08083EEE401
:10158000F0E088E080835CC0EFE4F0E083E08083FB
:10159000EEE4F0E088E0808353C0EFE4F0E082E026
:1015A0008083EEE4F0E088E180834AC0EFE4F0E07D
:1015B00083E08083EEE4F0E088E1808341C0EFE4E3
:1015C000F0E081E08083EEE4F0E0108239C0EFE4E7
:1015D000F0E082E08083EEE4F0E0108231C0EFE4DE
:1015E000F0E083E08083EEE4F0E0108229C0EFE4D5
:1015F000F0E082E08083EEE4F0E080E1808320C0D0
:10160000EFE4F0E083E08083EEE4F0E080E18083CB
:1016100017C0EFE4F0E01082EEE4F0E080E18083B8
:101620000FC0EFE4F0E081E08083EEE4F0E080E1E1
:10163000808306C0EFE4F0E01082EEE4F0E0108278
:1016400089810F900F900F900F900F90CF91DF91A5
:101650000895DF93CF9300D000D000D0CDB7DEB790
:101660009A838983E981FA8182818071882309F0D4
:1016700083C0E981FA818281829586958770282FBF
:1016800030E03E832D838D819E8182309105C1F1B2
:101690002D813E812330310554F48D819E81009748
:1016A00089F02D813E8121303105D9F056C08D81E0
:1016B0009E818330910599F12D813E812430310541
:1016C000E9F14BC0AEE4B0E0EEE4F0E0808181608F
:1016D0008C93AEE4B0E0EEE4F0E08081897F8C93FF
:1016E00096C0AEE4B0E0EEE4F0E080818A7F8C93B7
:1016F000AEE4B0E0EEE4F0E0808182608C9387C0DD
:10170000AEE4B0E0EEE4F0E0808183608C93AEE480
:10171000B0E0EEE4F0E080818B7F8C9378C0AEE4A3
:10172000B0E0EEE4F0E080818C7F8C93AEE4B0E03A
:10173000EEE4F0E0808184608C9369C0AEE4B0E0B8
:10174000EEE4F0E0808185608C93AEE4B0E0EEE4FE
:10175000F0E080818D7F8C935AC0AEE4B0E0EEE47F
:10176000F0E0808181608C93AEE4B0E0EEE4F0E0E4
:101770008081897F8C934BC0E981FA81828180715D
:101780008823B9F1E981FA8183818170282F30E0C3
:101790003C832B838B819C81009769F02B813C815A
:1017A00021303105B9F4AEE4B0E0EEE4F0E0808140
:1017B00087608C9316C0AEE4B0E0EEE4F0E0808188
:1017C0008E7F8C93AEE4B0E0EEE4F0E08081866042
:1017D0008C9307C0AEE4B0E0EEE4F0E08081876077
:1017E0008C93A7E3B0E0E7E3F0E080818D7F8C93FA
:1017F0000EC0AEE4B0E0EEE4F0E0808181608C9356
:10180000AEE4B0E0EEE4F0E08081897F8C93269630
:101810000FB6F894DEBF0FBECDBFCF91DF91089514
:101820001F920F920FB60F9211242F933F934F9355
:101830005F936F937F938F939F93AF93BF93EF9338
:10184000FF93DF93CF93CDB7DEB78091A80190913E
:10185000A901009729F0E091A801F091A90109954B
:10186000CF91DF91FF91EF91BF91AF919F918F91B8
:101870007F916F915F914F913F912F910F900FBE8C
:101880000F901F901895DF93CF93CDB7DEB7E0E2AE
:10189000F0E088E28083E1E2F0E01082E2E2F0E052
:1018A00082E08083E6E5F0E084E08083CF91DF9101
:1018B0000895DF93CF93CDB7DEB7E6E5F0E0108271
:1018C000E0E2F0E01082E1E2F0E01082CF91DF91FF
:1018D0000895DF93CF93CDB7DEB7A6E5B0E0E6E598
:1018E000F0E08081846A8C93E6E5F0E080818823D3
:1018F000DCF7CF91DF910895DF93CF93CDB7DEB7BB
:10190000A6E5B0E0E6E5F0E0808184698C93CF91B4
:10191000DF910895DF93CF930F92CDB7DEB7898320
:10192000E3E2F0E089818083E6E5F0E084E880830B
:10193000E6E5F0E080818823DCF70F90CF91DF911E
:101940000895DF93CF93CDB7DEB7E6E5F0E084EC02
:101950008083E6E5F0E080818823DCF7E3E2F0E0D5
:101960008081CF91DF910895DF93CF93CDB7DEB71C
:10197000E6E5F0E084E88083A6E5B0E0E6E5F0E0A7
:1019800080818F7B8C93E6E5F0E080818823DCF713
:10199000E3E2F0E08081CF91DF910895DF93CF9370
:1019A0000F92CDB7DEB7E1E2F0E08081887F8983D6
:1019B00089810F90CF91DF910895DF93CF9300D06D
:1019C0000F92CDB7DEB79B838A8381E089838A81BA
:1019D0009B81009771F08A819B819093AB018093EA
:1019E000AA01A6E5B0E0E6E5F0E0808181608C9395
:1019F00005C08A819B81009709F4198289810F9023
:101A00000F900F90CF91DF9108951F920F920FB614
:101A10000F9211242F933F934F935F936F937F9374
:101A20008F939F93AF93BF93EF93FF93DF93CF93E6
:101A3000CDB7DEB78091AA019091AB01009729F054
:101A4000E091AA01F091AB010995A6E5B0E0E6E5C9
:101A5000F0E0808180688C93CF91DF91FF91EF91CE
:101A6000BF91AF919F918F917F916F915F914F91B6
:101A70003F912F910F900FBE0F901F901895DF93FD
:101A8000CF9300D00F92CDB7DEB79B838A8381E0DE
:101A900089838A819B81009711F419826EC081E04D
:101AA0008983EA81FB8180818074882389F5EA81BA
:101AB000FB8180818770882F90E0880F991FFC013F
:101AC000E859FE4FA081B181EA81FB818081877056
:101AD000882F90E0880F991FFC01E859FE4F019074
:101AE000F081E02D4081EA81FB8180818695869599
:101AF00086958770282F30E081E090E0022E02C0AA
:101B0000880F991F0A94E2F7809584238C9335C03F
:101B1000EA81FB8180818074882379F1EA81FB81ED
:101B200080818770882F90E0880F991FFC01E85909
:101B3000FE4FA081B181EA81FB8180818770882F6F
:101B400090E0880F991FFC01E859FE4F0190F08149
:101B5000E02D4081EA81FB8180818695869586957E
:101B60008770282F30E081E090E0022E02C0880FBD
:101B7000991F0A94E2F7842B8C9389810F900F9020
:101B80000F90CF91DF910895DF93CF9300D00F9204
:101B9000CDB7DEB79B838A8381E089838A819B816D
:101BA000009711F4198212C08A819B810E943F0D17
:101BB0008983EA81FB818081881F8827881F282FDD
:101BC0008A819B81622F0E942E0E898389810F90CA
:101BD0000F900F90CF91DF910895DF93CF9300D0B6
:101BE00000D00F92CDB7DEB79B838A837D836C8351
:101BF00081E089838A819B81009711F4198225C035
:101C0000EA81FB8180818770882F90E0880F991F7F
:101C1000FC01E859FE4F0190F081E02D8081282FD2
:101C200030E0EA81FB818081869586958695877074
:101C3000882F90E0A90102C0559547958A95E2F753
:101C4000CA018170EC81FD81808389810F900F90A2
:101C50000F900F900F90CF91DF910895DF93CF9366
:101C600000D000D0CDB7DEB79B838A836C8381E040
:101C700089838A819B81009711F4198266C08C81C7
:101C8000813081F5EA81FB8180818770882F90E027
:101C9000880F991FFC01E059FE4FA081B181EA81B4
:101CA000FB8180818770882F90E0880F991FFC014D
:101CB000E059FE4F0190F081E02D4081EA81FB81E7
:101CC00080818695869586958770282F30E081E003
:101CD00090E0022E02C0880F991F0A94E2F7842B2D
:101CE0008C9333C08C81882381F5EA81FB818081CC
:101CF0008770882F90E0880F991FFC01E059FE4FF4
:101D0000A081B181EA81FB8180818770882F90E07A
:101D1000880F991FFC01E059FE4F0190F081E02DE2
:101D20004081EA81FB8180818695869586958770C2
:101D3000282F30E081E090E0022E02C0880F991F2A
:101D40000A94E2F7809584238C9389810F900F90F9
:101D50000F900F90CF91DF910895DF93CF9300D034
:101D600000D00F92CDB7DEB79B838A837D836C83CF
:101D700081E089838A819B81009711F4198225C0B3
:101D8000EA81FB8180818770882F90E0880F991FFE
:101D9000FC01E858FE4F0190F081E02D8081282F52
:101DA00030E0EA81FB8180818695869586958770F3
:101DB000882F90E0A90102C0559547958A95E2F7D2
:101DC000CA018170EC81FD81808389810F900F9021
:101DD0000F900F900F90CF91DF910895DF93CF93E5
:101DE00000D00F92CDB7DEB79B838A8381E08983D1
:101DF0008A819B81009711F419822FC0EA81FB81AF
:101E000080818770882F90E0880F991FFC01E0592E
:101E1000FE4FA081B181EA81FB8180818770882F8C
:101E200090E0880F991FFC01E059FE4F0190F0816E
:101E3000E02D4081EA81FB8180818695869586959B
:101E40008770282F30E081E090E0022E02C0880FDA
:101E5000991F0A94E2F784278C9389810F900F9041
:101E60000F90CF91DF910895DF93CF9300D00F9221
:101E7000CDB7DEB79B838A8381E089838A819B818A
:101E8000009711F4198265C0EA81FB818081877017
:101E9000882F90E0880F991FFC01E859FE4FA08120
:101EA000B181EA81FB8180818770882F90E0880F63
:101EB000991FFC01E859FE4F0190F081E02D40810F
:101EC000EA81FB8180818695869586958770282F8B
:101ED00030E081E090E002C0880F991F2A95E2F778
:101EE000809584238C93EA81FB8180818770882F81
:101EF00090E0880F991FFC01E059FE4FA081B1814D
:101F0000EA81FB8180818770882F90E0880F991F7C
:101F1000FC01E059FE4F0190F081E02D4081EA8103
:101F2000FB8180818695869586958770282F30E085
:101F300081E090E0022E02C0880F991F0A94E2F718
:101F4000842B8C93A0E5B0E0E0E5F0E080818B7F0E
:101F50008C9389810F900F900F90CF91DF9108950E
:101F6000DF93CF9300D00F92CDB7DEB79B838A83E8
:101F700081E089838A819B81009711F4198230C0A6
:101F8000EA81FB8180818770882F90E0880F991FFC
:101F9000FC01E059FE4FA081B181EA81FB81808183
:101FA0008770882F90E0880F991FFC01E059FE4F41
:101FB0000190F081E02D4081EA81FB81808186954E
:101FC000869586958770282F30E081E090E0022E7C
:101FD00002C0880F991F0A94E2F7809584238C939E
:101FE00089810F900F900F90CF91DF910895DF932B
:101FF000CF9300D00F92CDB7DEB78A836B8381E099
:1020000089838A81843010F019820DC08A81882FDB
:1020100090E0880F991FFC01E859FE4F0190F08174
:10202000E02D8B81808389810F900F900F90CF914D
:10203000DF910895DF93CF9300D000D0CDB7DEB706
:102040008A836B834C8381E089838A81843010F09A
:1020500019821AC08A81882F90E0880F991FFC018D
:10206000E859FE4F0190F081E02D8B8180838A81B9
:10207000882F90E0880F991FFC01E059FE4F0190D6
:10208000F081E02D8C81808389810F900F900F90DB
:102090000F90CF91DF910895DF93CF9300D000D0C0
:1020A000CDB7DEB78A837C836B8381E089838A81A5
:1020B000843010F019820FC08A81882F90E0880F39
:1020C000991FFC01E859FE4F0190F081E02D8081BD
:1020D000EB81FC81808389810F900F900F900F908E
:1020E000CF91DF910895DF93CF9300D00F92CDB7BA
:1020F000DEB78A836B8381E089838A81843010F024
:1021000019820DC08A81882F90E0880F991FFC01E9
:10211000E059FE4F0190F081E02D8B818083898111
:102120000F900F900F90CF91DF910895DF93CF9391
:1021300000D000D0CDB7DEB78A837C836B8381E08B
:1021400089838A81843010F019820FC08A81882F98
:1021500090E0880F991FFC01E858FE4F0190F08134
:10216000E02D8081EB81FC81808389810F900F902D
:102170000F900F90CF91DF910895DF93CF9300D010
:10218000CDB7DEB78A8381E089838A81843010F0FD
:10219000198218C08A81882F90E0880F991FFC014E
:1021A000E059FE4FA081B1818A81882F90E0880F8D
:1021B000991FFC01E059FE4F0190F081E02D8081D4
:1021C00080958C9389810F900F90CF91DF91089526
:1021D000DF93CF9300D000D0CDB7DEB78A8381E004
:1021E00089838A81843010F0198238C08A81882FCF
:1021F00090E0880F991FFC01E859FE4F0190F08193
:10220000E02D80818A81882F90E0880F991FFC0142
:10221000E859FE4F0190F081E02D10828A81882FCD
:1022200090E0880F991FFC01E059FE4F0190F0816A
:10223000E02D80818A81882F90E0880F991FFC0112
:10224000E059FE4F0190F081E02D8FEF8083A0E5F3
:10225000B0E0E0E5F0E080818B7F8C9389810F9086
:102260000F900F900F90CF91DF910895DF93CF9350
:1022700000D0CDB7DEB78A8381E089838A8184303C
:1022800010F019820CC08A81882F90E0880F991F66
:10229000FC01E059FE4F0190F081E02D1082898110
:1022A0000F900F90CF91DF910895DF93CF93CDB72B
:1022B000DEB780EA91E00E94C40D80938B0180E834
:1022C00091E00E94B70680938B0180918B01CF91A2
:1022D000DF910895DF93CF93CDB7DEB780EA91E029
:1022E00061E00E942E0E80938B01CF91DF910895C3
:1022F000DF93CF93CDB7DEB780EA91E060E00E9434
:102300002E0E80938B01CF91DF910895DF93CF93B1
:1023100000D00F92CDB7DEB79B838A8381E089839B
:102320008A819B81009711F419820BC08A819B815D
:102330000E94C40D89838A819B8101960E94C40DED
:10234000898389810F900F900F90CF91DF9108952D
:10235000DF93CF9300D00F92CDB7DEB79B838A83F4
:1023600081E089838A819B81009711F419820BC0D7
:102370008A819B8161E00E942E0E8A819B81019659
:1023800060E00E942E0E89810F900F900F90CF91E8
:10239000DF910895DF93CF9300D00F92CDB7DEB7D2
:1023A0009B838A8381E089838A819B81009711F4D2
:1023B00019820BC08A819B8160E00E942E0E8A8167
:1023C0009B81019661E00E942E0E89810F900F90F3
:1023D0000F90CF91DF910895DF93CF9300D00F92AC
:1023E000CDB7DEB79B838A8381E089838A819B8115
:1023F000009711F419820BC08A819B8160E00E94D2
:102400002E0E8A819B81019660E00E942E0E8981AA
:102410000F900F900F90CF91DF910895DF93CF939E
:1024200000D000D00F92CDB7DEB79C838B836D8335
:1024300081E08A8380EA89830E94430C0E94690CB0
:102440008B819C81880F892F881F990B9195982FDC
:102450008981892B898389818E7F898389810E94E3
:102460008A0C0E94CE0C803249F38B81898389814A
:102470000E948A0C0E94CE0C883211F01A8203C08E
:102480008D810E948A0C0E947C0C8A810F900F9093
:102490000F900F900F90CF91DF910895DF93CF931E
:1024A00000D000D000D0CDB7DEB79C838B837E8375
:1024B0006D8381E08A8380EA89830E94430C0E94B5
:1024C000690C8B819C81880F892F881F990B9195AE
:1024D000982F8981892B898389810E948A0C0E9487
:1024E000CE0C803261F38B81898389810E948A0CB2
:1024F0000E94690C0E94CE0C803191F48B819C81EA
:10250000880F892F881F990B9195816A898389810A
:102510000E948A0C0E94B40CED81FE81808301C070
:102520001A820E947C0C8A8126960FB6F894DEBF30
:102530000FBECDBFCF91DF910895DF93CF93CDB77D
:10254000DEB729970FB6F894DEBF0FBECDBF9D83CF
:102550008C837F836E83488781E08B831A8280EA35
:1025600089838885813110F01B8237C00E94430C1B
:102570000E94690C8C819D81880F892F881F990B7F
:102580009195982F8981892B898389810E948A0C52
:102590000E94CE0C803261F38C81898389810E94F4
:1025A0008A0C0EC08A81282F30E08E819F81FC0129
:1025B000E20FF31F80810E948A0C8A818F5F8A83D9
:1025C000888589878985882311F081E089878985B5
:1025D000988591509887882329F70E947C0C8B81DD
:1025E00029960FB6F894DEBF0FBECDBFCF91DF9115
:1025F00008950F931F93DF93CF93CDB7DEB728973E
:102600000FB6F894DEBF0FBECDBF9D838C837F8352
:102610006E83488781E08B831A8280EA898388856C
:10262000813110F01B825AC00E94430C0E94690C39
:102630008C819D81880F892F881F990B9195982FE8
:102640008981892B898389810E948A0C0E94CE0C02
:10265000803261F38C81898389810E948A0C0E9477
:10266000690C0E94CE0C803111F01B8237C08C8126
:102670009D81880F892F881F990B9195816A898385
:1026800089810E948A0C26C08A81282F30E08885A3
:10269000882F90E00197281739076CF48A81282F3A
:1026A00030E08E819F818C01020F131F0E94A10CCC
:1026B000F80180830CC08A81282F30E08E819F81B1
:1026C0008C01020F131F0E94B40CF80180838A81D1
:1026D0008F5F8A839A8188859817B0F20E947C0C5C
:1026E0008B8128960FB6F894DEBF0FBECDBFCF9179
:1026F000DF911F910F910895DF93CF93CDB7DEB790
:1027000085EA91E00E94861180938B0180918B0174
:10271000CF91DF910895DF93CF93CDB7DEB70E94BD
:102720006F1480E891E027EB31E0B9010E943E0789
:1027300080938B012DEA31E080E090E0B9010E94A6
:102740004E1280938B018091AD018F3F29F540910E
:1027500095012DE831E088E090E0B9010E949D12DA
:1027600080938B012091950181E090E0622F0E947F
:102770000E1280938B011092AD012091AD0180E08B
:1027800090E0622F0E940E1280938B0180E00E94E5
:102790000C0780938B011DC08091AD018823C9F483
:1027A00025E931E081E090E0B9010E944E1280936A
:1027B0008B01409195012DE831E088E090E0B9016E
:1027C0000E94F91280938B0181E00E940C07809394
:1027D0008B0180E891E027EB31E0B9010E943E07D0
:1027E00080938B018091B7018A3A99F780E891E054
:1027F0002EEA31E0B9010E94B00780938B0180E896
:1028000091E026EB31E0B9010E943E0780938B01F5
:10281000409195015091B6018DE891E02EEA31E0AA
:10282000B901252F0E949C1480938B0180918B010C
:10283000813009F043C081EA8093B7018091B701EC
:102840000E940C0780938B0180E891E027EB31E038
:10285000B9010E943E0780938B018091B7018133BB
:1028600019F40E941215B5CF8091B701823309F097
:10287000B0CF80E891E02EEA31E0B9010E94B007C4
:1028800080938B0180E891E026EB31E0B9010E9452
:102890003E0780938B012091B6018EEA91E0622F72
:1028A0000E94E514409195012DE831E088E090E028
:1028B000B9010E949D1280938B018BCF80918B0177
:1028C000882309F086CF80EA8093B7018091B70111
:1028D0000E940C0780938B010E9455157ACFDF93DD
:1028E000CF93CDB7DEB70E947C1380938B010E94FB
:1028F000551180938B01CF91DF910895DF93CF9392
:10290000CDB7DEB780918C01815080938C0180918E
:102910008C01882331F481EA91E00E94B20980930E
:102920008B0181EA91E06EEE75E80E94D6098093F2
:102930008B01CF91DF910895DF93CF93CDB7DEB7B1
:1029400029970FB6F894DEBF0FBECDBF9C838B8353
:102950007E836D834F83288781E08A8319829F81DC
:1029600088859817D9F01A8226C08981282F30E0EF
:102970008B819C81FC01E20FF31F40818981282F0C
:1029800030E08D819E81FC01E20FF31F80814817AA
:1029900011F01A8210C089818F5F89838F818987A6
:1029A0008985882311F081E0898789859F819150ED
:1029B0009F838823D1F68A8129960FB6F894DEBFCB
:1029C0000FBECDBFCF91DF910895DF93CF9300D09D
:1029D00000D0CDB7DEB79B838A836C8319821982BE
:1029E00013C08981482F50E08981282F30E08A81E7
:1029F0009B81FC01E20FF31F8081FA01E357FE4F38
:102A0000808389818F5F898399818C81981748F3AE
:102A10008C81809395010F900F900F900F90CF9124
:102A2000DF910895DF93CF93CDB7DEB783E0809336
:102A30008C0181EA91E060E070E00E94D609809309
:102A40008B0181EA91E00E94770980938B0185EAEE
:102A500091E00E94A81180918C018823E1F783E026
:102A600080938C0181EA91E060E070E00E94D609D9
:102A700080938B0181EA91E00E94770980938B011A
:102A800085EA91E00E94CA1180918C018823E1F7C8
:102A900081EA91E00E94B20980938B0185EA91E07E
:102AA0000E94EC11CF91DF910895DF93CF93CDB7C2
:102AB000DEB786E080938C0181EA91E060E070E00F
:102AC0000E94D60980938B0181EA91E00E947709E8
:102AD00080938B010E946A1180918C018823E1F719
:102AE0000E947811CF91DF9108952F923F924F92DB
:102AF0005F926F927F928F929F92AF92BF92CF928E
:102B0000DF92EF92FF920F931F93CF93DF93CDB796
:102B1000DEB7CA1BDB0B0FB6F894DEBF0FBECDBF0E
:102B200009942A88398848885F846E847D848C84DF
:102B30009B84AA84B984C884DF80EE80FD800C81E8
:102B40001B81AA81B981CE0FD11D0FB6F894DEBFCB
:0C2B50000FBECDBFED010895F894FFCF3B
:102B5C000000000000000000000102020303030358
:102B6C000404040404040404050505050505050511
:102B7C0005050505050505050606060606060606F1
:102B8C0006060606060606060606060606060606D9
:102B9C0006060606060606060707070707070707C1
:102BAC0007070707070707070707070707070707A9
:102BBC000707070707070707070707070707070799
:102BCC000707070707070707070707070707070789
:102BDC000707070707070707080808080808080871
:102BEC000808080808080808080808080808080859
:102BFC000808080808080808080808080808080849
:102C0C000808080808080808080808080808080838
:102C1C000808080808080808080808080808080828
:102C2C000808080808080808080808080808080818
:102C3C000808080808080808080808080808080808
:102C4C0008080808080808080808080808080808F8
:102C5C0008080808080808083A0037003400310052
:102C6C003B003800350032003900360033003000AC
:102C7C0000000000850000004B00000103303030E4
:102C8C0030000000000401000800400000010004B6
:082C9C007B7E146000636B00F5
:00000001FF
