:100000000C942A000C9447000C9447000C94470071
:100010000C9447000C9447000C9447000C94470044
:100020000C94700C0C9447000C9447000C944700FF
:100030000C9447000C9447000C9447000C94470024
:100040000C9447000C9447000C9447000C94470014
:100050000C94470011241FBECFE5D4E0DEBFCDBF16
:1000600012E0A0E6B0E0EEEDFAE302C005900D92DA
:10007000A638B107D9F712E0A6E8B2E001C01D9298
:10008000A539B107E1F70E9434190C946D1D0C9449
:100090000000EF92FF920F931F937B018C0120E0F1
:1000A00030E040E05FE40E94F50388238CF0C80153
:1000B000B70120E030E040E05FE40E94C1010E940F
:1000C00055049B01AC01205030404040504806C0D0
:1000D000C801B7010E9455049B01AC01B901CA01D6
:1000E0001F910F91FF90EF900895A0E0B0E0EBE733
:1000F000F0E00C94361DDC012B01FA019C9192304A
:1001000008F439C1EB018881823008F433C194309E
:1001100069F4843009F02FC111969C91119789815F
:10012000981709F428C1ACE2B1E025C1843009F484
:1001300021C18230A9F4923009F01DC19A01AD01AC
:1001400088E0EA010990AE01E90109929E0181501F
:10015000C1F7E201898111969C918923818308C1AD
:10016000923009F407C112962D903C901397EB0141
:100170008A819B811496AD90BD90CD90DC901797AD
:10018000EC80FD800E811F819101281B390BB90184
:1001900037FF04C066277727621B730B6032710537
:1001A0000CF061C0121613066CF537014801062EDB
:1001B00004C096948794779467940A94D2F721E0C8
:1001C00030E040E050E004C0220F331F441F551FB1
:1001D0006A95D2F721503040404050402E213F21B7
:1001E00040235123211531054105510521F021E01E
:1001F00030E040E050E079018A01E628F72808293C
:1002000019293CC0232BD1F1260E371E350146019A
:10021000062E04C096948794779467940A94D2F734
:1002200021E030E040E050E004C0220F331F441FC3
:10023000551F6A95D2F721503040404050402A2146
:100240003B214C215D21211531054105510521F04E
:1002500021E030E040E050E059016A01A628B728CB
:10026000C828D9280BC0821593052CF01C01AA249C
:10027000BB24650103C0EE24FF24870111969C91E5
:10028000D20111968C91981709F445C0992339F041
:10029000A80197012A193B094C095D0906C0A6016E
:1002A00095012E193F09400B510B57FD08C01182D3
:1002B0003382228224833583468357831DC081E0A5
:1002C00081833382228288279927DC01821B930B4A
:1002D000A40BB50B84839583A683B7830DC0220F2F
:1002E000331F441F551F24833583468357838281E0
:1002F000938101979383828324813581468157813D
:10030000DA01C9010197A109B1098F5F9F4FAF4F72
:10031000BF4328F30BC0918333822282EA0CFB1C7B
:100320000C1D1D1DE482F5820683178383E0808304
:10033000248135814681578157FF1AC0C901AA27F8
:1003400097FDA095BA2F81709070A070B0705695EF
:10035000479537952795822B932BA42BB52B848318
:100360009583A683B7838281938101969383828349
:10037000DF0101C0D201CD01CDB7DEB7E2E10C94BF
:10038000521DA0E2B0E0E7ECF1E00C94421D69835D
:100390007A838B839C832D833E834F835887E9E048
:1003A000EE2EF12CEC0EFD1ECE010196B7010E943F
:1003B00046068E010F5E1F4FCE010596B8010E94C2
:1003C00046068A8991E089278A8BC701B801AE0168
:1003D000475E5F4F0E9475000E947105A096E6E09F
:1003E0000C945E1DA0E2B0E0E8EFF1E00C94421D39
:1003F00069837A838B839C832D833E834F835887C5
:10040000F9E0EF2EF12CEC0EFD1ECE010196B701A6
:100410000E9446068E010F5E1F4FCE010596B80161
:100420000E944606C701B801AE01475E5F4F0E94B9
:1004300075000E947105A096E6E00C945E1DA0E296
:10044000B0E0E5E2F2E00C94361D69837A838B8399
:100450009C832D833E834F835887CE010196BE0136
:10046000675F7F4F0E944606CE010596BE016F5E14
:100470007F4F0E9446069985923088F089898230A4
:10048000C8F0943019F4823051F404C0843029F457
:10049000923081F48CE291E0C6C0923049F420E0C1
:1004A0009A858A89981321E02A87CE010996BBC0D4
:1004B000823049F420E09A858A89981321E02A8BBA
:1004C000CE014196B0C02D843E844F8458886D88FB
:1004D0007E888F88988CEE24FF248701AA24BB2471
:1004E000650140E050E060E070E0E0E0F0E0C10174
:1004F00081709070892BE9F0E60CF71C081D191D1E
:100500009A01AB012A0D3B1D4C1D5D1D80E090E062
:10051000A0E0B0E0E614F7040805190520F481E036
:1005200090E0A0E0B0E0BA01A901480F591F6A1F8E
:100530007B1FAA0CBB1CCC1CDD1C97FE08C081E0F5
:1005400090E0A0E0B0E0A82AB92ACA2ADB2A3196B6
:10055000E032F10549F0660C771C881C991C569412
:10056000479437942794C3CFFA85EA892B893C892D
:100570008B859C85280F391F2E5F3F4F17C0CA01FE
:1005800081709070892B61F016950795F794E79428
:1005900080E090E0A0E0B0E8E82AF92A0A2B1B2BC3
:1005A00076956795579547952F5F3F4F77FDE7CF36
:1005B0000CC0440F551F661F771F17FD4160EE0CDE
:1005C000FF1C001F111F21503040403090E05907A0
:1005D00090E0690790E4790760F32B8F3C8FDB0193
:1005E000CA018F779070A070B07080349105A1051A
:1005F000B10561F447FD0AC0E114F10401051105DC
:1006000029F0405C5F4F6F4F7F4F40781A8EFE1786
:1006100011F081E08A8F4D8F5E8F6F8F78A383E01A
:10062000898FCE0149960E947105A096E2E10C9453
:10063000521DA8E1B0E0EFE1F3E00C943E1D6983A8
:100640007A838B839C832D833E834F835887B9E0C5
:10065000EB2EF12CEC0EFD1ECE010196B7010E948F
:1006600046068E010F5E1F4FCE010596B8010E940F
:1006700046062985223008F47EC03989323010F4CC
:10068000B8017CC08A859A8989278A87243011F02D
:10069000223031F4231709F06EC06CE271E06EC0B5
:1006A000343039F41D861E861F86188A1C861B86E8
:1006B00004C0323021F484E08987B7015FC02B8504
:1006C0003C858B899C89281B390B3C872B87ED84C3
:1006D000FE840F851889AD88BE88CF88D88CEA142F
:1006E000FB040C051D0540F4EE0CFF1C001F111F40
:1006F000215030403C872B8720E030E040E050E044
:1007000080E090E0A0E0B0E460E070E0EA14FB0478
:100710000C051D0540F0282B392B4A2B5B2BEA18C2
:10072000FB080C091D09B695A79597958795EE0CC2
:10073000FF1C001F111F6F5F7F4F6F31710531F775
:10074000DA01C9018F779070A070B0708034910584
:10075000A105B10561F427FD0AC0E114F10401050A
:10076000110529F0205C3F4F4F4F5F4F20782D87B8
:100770003E874F87588BBE01675F7F4FCB010E943A
:1007800071056896EAE00C945A1DA8E1B0E0EBEC24
:10079000F3E00C94421D69837A838B839C832D83C1
:1007A0003E834F83588789E0E82EF12CEC0EFD1E26
:1007B000CE010196B7010E9446068E010F5E1F4FC3
:1007C000CE010596B8010E9446068985823040F028
:1007D0008989823028F0C701B8010E94BE0601C095
:1007E0008FEF6896E6E00C945E1DA8E1B0E0EBEFB9
:1007F000F3E00C94421D69837A838B839C832D8361
:100800003E834F83588789E0E82EF12CEC0EFD1EC5
:10081000CE010196B7010E9446068E010F5E1F4F62
:10082000CE010596B8010E9446068985823040F0C7
:100830008989823028F0C701B8010E94BE0601C034
:100840008FEF6896E6E00C945E1DA8E1B0E0EBE265
:10085000F4E00C94421D69837A838B839C832D83FF
:100860003E834F83588789E0E82EF12CEC0EFD1E65
:10087000CE010196B7010E9446068E010F5E1F4F02
:10088000CE010596B8010E9446068985823040F067
:100890008989823028F0C701B8010E94BE0601C0D4
:1008A00081E06896E6E00C945E1DACE0B0E0EBE51C
:1008B000F4E00C94461D69837A838B839C83CE017C
:1008C0000196BE016B5F7F4F0E9446068D8182308C
:1008D00061F1823050F1843021F48E81882351F10E
:1008E0002EC02F81388537FD20C06E812F31310514
:1008F0001CF06623F9F023C08EE190E0821B930B7D
:1009000029853A854B855C8504C056954795379572
:1009100027958A95D2F76623B1F05095409530958A
:1009200021953F4F4F4F5F4F0EC020E030E040E039
:1009300050E009C02FEF3FEF4FEF5FE704C020E02A
:1009400030E040E050E8B901CA012C96E2E00C9496
:10095000621DA8E0B0E0EFEAF4E00C943E1D7B01DC
:100960008C01611571058105910519F482E0898377
:1009700060C083E089838EE1C82ED12CDC82CB82DB
:10098000ED82FE820F831887C801B7010E942205FD
:10099000FC013197F7FF3BC0222733272E1B3F0B6B
:1009A00057016801022E04C0D694C794B794A79447
:1009B0000A94D2F740E050E060E070E081E090E01F
:1009C000A0E0B0E004C0880F991FAA1FBB1F2A95A2
:1009D000D2F70197A109B1098E219F21A023B1234C
:1009E0000097A105B10521F041E050E060E070E022
:1009F0004A295B296C297D294D835E836F83788723
:100A00008EE190E08E1B9F0B9C838B8312C03097EE
:100A100081F00E2E04C0EE0CFF1C001F111F0A9463
:100A2000D2F7ED82FE820F831887CE1ADF0ADC82AE
:100A3000CB821A82CE0101960E9471052896EAE0C7
:100A40000C945A1DEF92FF920F931F937B018C0120
:100A500080E0E81680E0F80681E0080780E01807EB
:100A600088F48FEFE816F1040105110531F028F044
:100A700088E090E0A0E0B0E017C080E090E0A0E067
:100A8000B0E012C080E0E81680E0F80680E00807D9
:100A900081E0180728F088E190E0A0E0B0E004C011
:100AA00080E190E0A0E0B0E020E230E040E050E003
:100AB000281B390B4A0B5B0B04C016950795F7945E
:100AC000E7948A95D2F7F701EC5CFE4F8081281BF2
:100AD000310941095109C9011F910F91FF90EF9010
:100AE0000895DF92EF92FF920F931F93FC01E48031
:100AF000F58006811781D1808081823048F480E0C2
:100B000090E0A0E1B0E0E82AF92A0A2B1B2BA5C04F
:100B1000843009F49FC0823021F4EE24FF24870141
:100B200005C0E114F1040105110519F4E0E0F0E05D
:100B300096C0628173819FEF623879070CF05BC0C9
:100B400022E83FEF261B370B2A3131052CF020E03D
:100B500030E040E050E02AC0B801A701022E04C0F6
:100B600076956795579547950A94D2F781E090E07E
:100B7000A0E0B0E004C0880F991FAA1FBB1F2A95F0
:100B8000D2F70197A109B1098E219F21A023B1239A
:100B90000097A105B10521F081E090E0A0E0B0E070
:100BA0009A01AB01282B392B4A2B5B2BDA01C901A7
:100BB0008F779070A070B07080349105A105B10559
:100BC00039F427FF09C0205C3F4F4F4F5F4F04C0EF
:100BD000215C3F4F4F4F5F4FE0E0F0E02030A0E05E
:100BE0003A07A0E04A07A0E45A0710F0E1E0F0E07D
:100BF00079018A0127C06038710564F5FB01E1586D
:100C0000FF4FD801C7018F779070A070B07080340B
:100C10009105A105B10539F4E7FE0DC080E490E02F
:100C2000A0E0B0E004C08FE390E0A0E0B0E0E80E08
:100C3000F91E0A1F1B1F17FF05C016950795F7948D
:100C4000E794319687E016950795F794E7948A958F
:100C5000D1F705C0EE24FF248701EFEFF0E06E2FFF
:100C6000679566276795902F9F77D794DD24D79453
:100C70008E2F8695492F462B582F5D29B701CA0123
:100C80001F910F91FF90EF90DF900895FC01DB0121
:100C9000408151812281622F6F7770E0221F2227CD
:100CA000221F9381892F880F822B282F30E0991FD4
:100CB0009927991F11969C93119721153105A9F534
:100CC000411551056105710511F482E037C082E8D4
:100CD0009FEF13969C938E9312979A01AB0167E056
:100CE000220F331F441F551F6A95D1F783E08C9361
:100CF0000DC0220F331F441F551F12968D919C91DA
:100D00001397019713969C938E931297203080E04F
:100D1000380780E0480780E4580758F314962D936D
:100D20003D934D935C93179708952F3F310579F4C8
:100D3000411551056105710519F484E08C930895FE
:100D400064FF03C081E08C9312C01C9210C02F5727
:100D5000304013963C932E93129783E08C9387E058
:100D6000440F551F661F771F8A95D1F7706414963C
:100D70004D935D936D937C93179708951F93DC01BA
:100D8000FB019C91923008F447C08081823008F4C6
:100D900043C0943051F411961C91843099F58181AF
:100DA000682F70E0611B71093FC0843021F09230E0
:100DB00031F48230B9F18181882389F12DC01196F7
:100DC0001C9111978230F1F081811817D9F4129695
:100DD0002D913C911397828193818217930794F010
:100DE00028173907BCF014968D919D910D90BC91F8
:100DF000A02D2481358146815781281739074A075C
:100E00005B0718F4112341F00AC082179307A40767
:100E1000B50740F4112319F061E070E005C06FEFF1
:100E20007FEF02C060E070E0CB011F910895DF9377
:100E3000CF9300D00F92CDB7DEB79B838A8381E03A
:100E400089838A819B81009711F419823EC0EAE26E
:100E5000F0E01082EA81FB8127813085418552854F
:100E6000EA81FB8185818370E82FCA01B9014E2F89
:100E70000E946708EA81FB81848182958F70282F08
:100E8000EA81FB818581869586958370982F822FD4
:100E9000692F0E942D09EA81FB818481817088235A
:100EA00039F0AAE2B0E0EAE2F0E0808180618C9360
:100EB000EA81FB8184818470882339F0AAE2B0E062
:100EC000EAE2F0E0808188608C9389810F900F9036
:100ED0000F90CF91DF910895DF93CF9300D0CDB7DE
:100EE000DEB78A8381E08983EBE2F0E0808182953E
:100EF00086958770882F90E0817090700097A1F39D
:100F0000ECE2F0E08A818083EBE2F0E08081829580
:100F1000869586958370882F90E0817090700097F9
:100F200099F3ABE2B0E0EBE2F0E0808180648C9377
:100F300089810F900F90CF91DF910895DF93CF9328
:100F400000D000D00F92CDB7DEB79B838A837D831C
:100F50006C8381E089838A819B81009721F08C8159
:100F60009D81009711F4198225C0EBE2F0E08081A9
:100F70008823DCF7EBE2F0E08081EA81FB81868365
:100F8000EA81FB8186818870882361F4EA81FB8194
:100F900086818071882331F4EA81FB8186818470A7
:100FA000882311F0198206C0ECE2F0E08081EC8128
:100FB000FD81808389810F900F900F900F900F908B
:100FC000CF91DF910895DF93CF9300D000D0CDB7BC
:100FD000DEB79C838B8381E08A8319820EC089816E
:100FE000282F30E08B819C81FC01E20FF31F808170
:100FF0000E946C0789818F5F89838981282F30E067
:101000008B819C81FC01E20FF31F8081882339F7DB
:101010008A810F900F900F900F90CF91DF910895DC
:10102000DF93CF9300D000D000D0CDB7DEB79C8344
:101030008B837E836D8381E08A8319828B819C817F
:10104000009721F08D819E81009711F41A8235C09E
:101050008981282F30E08D819E81280F391F8B8157
:101060009C81B9010E949E078A8313C089818F5F8A
:1010700089838981282F30E08D819E81280F391F37
:101080008B819C81B9010E949E078A838A81882373
:1010900059F08981282F30E08D819E81FC01E20F7B
:1010A000F31F8081833211F78981282F30E08D81F1
:1010B0009E81FC01E20FF31F10828A8126960FB6F3
:1010C000F894DEBF0FBECDBFCF91DF910895DF93BF
:1010D000CF93CDB7DEB729970FB6F894DEBF0FBE1A
:1010E000CDBF6B837C838D839E834F831A8219824D
:1010F0008F81282F30E0398728878885998581302E
:10110000910579F1288539852230310509F05DC0D6
:10111000A0E4B0E0E0E4F0E08081806C8C936B812F
:101120007C818D819E810E94A9049B01AC01CA0132
:10113000B9010E94F201DC01CB019C01AD0160E02C
:1011400074E284EF9AE40E941903DC01CB01BC0134
:10115000CD010E944900DC01CB0101979A8389836C
:1011600067C0A0E4B0E0E0E4F0E0808180688C93A8
:10117000ABE2B0E0EBE2F0E0808182608C936B81C7
:101180007C818D819E810E94A904DC01CB01BC0180
:10119000CD0120E030E040E051E40E941F02DC017C
:1011A000CB019C01AD0160E074E284EF9AE40E94FF
:1011B0001903DC01CB01BC01CD010E944900DC0117
:1011C000CB0101979A83898333C0A0E4B0E0E0E4C7
:1011D000F0E0808180688C93ABE2B0E0EBE2F0E07D
:1011E00080818D7F8C936B817C818D819E810E941B
:1011F000A904DC01CB01BC01CD0120E030E040E8D6
:1012000051E40E941F02DC01CB019C01AD0160E0B2
:1012100074E284EF9AE40E941903DC01CB01BC0163
:10122000CD010E944900DC01CB0101979A8389839B
:10123000E9E2F0E089818083E0E4F0E089819A814D
:10124000892F99278F70808329960FB6F894DEBF77
:101250000FBECDBFCF91DF910895DF93CF9300D024
:1012600000D000D0CDB7DEB789836A83A0E4B0E0B8
:10127000E0E4F0E0808180688C938A81282F30E060
:101280003E832D838D819E818230910531F02D81A9
:101290003E812330310549F010C0A0E4B0E0E0E425
:1012A000F0E08081806A8C930FC0A0E4B0E0E0E4BD
:1012B000F0E08081806B8C9307C0A0E4B0E0E0E4B4
:1012C000F0E0808180688C938981282F30E03C8316
:1012D0002B838B819C818630910529F12B813C8168
:1012E0002730310534F48B819C818530910561F084
:1012F00047C02B813C812730310521F18B819C81B6
:101300008930910571F13CC0A0E4B0E0E0E4F0E088
:10131000808180688C93AAE2B0E0EAE2F0E080810C
:101320008B7F8C933BC0A0E4B0E0E0E4F0E08081F0
:1013300082688C93AAE2B0E0EAE2F0E080818B7FE1
:101340008C932CC0A0E4B0E0E0E4F0E080818468FD
:101350008C93AAE2B0E0EAE2F0E080818B7F8C938C
:101360001DC0A0E4B0E0E0E4F0E0808186688C93EA
:10137000AAE2B0E0EAE2F0E0808184608C930EC0E3
:10138000A0E4B0E0E0E4F0E0808186688C93AAE21B
:10139000B0E0EAE2F0E080818B7F8C9326960FB676
:1013A000F894DEBF0FBECDBFCF91DF910895DF93DC
:1013B000CF9300D00F92CDB7DEB79B838A8381E0B5
:1013C00089838A819B81009711F4198224C0EFE4FC
:1013D000F0E01082EEE4F0E01082AFE5B0E0EFE57F
:1013E000F0E0808180688C93A9E5B0E0E9E5F0E069
:1013F000808184608C93EA81FB81808191819093CC
:101400008702809386028A819B810E94970A8A8143
:101410009B810E94890B89810F900F900F90CF9133
:10142000DF910895DF93CF9300D00F92CDB7DEB751
:101430009B838A8381E089838A819B81009711F451
:1014400019820DC0EEE4F0E01082EFE4F0E01082CB
:10145000A9E5B0E0E9E5F0E080818B7F8C9389819C
:101460000F900F900F90CF91DF910895DF93CF935E
:1014700000D000D00F92CDB7DEB79B838A837D83E7
:101480006C8381E089838A819B81009711F41982A2
:101490000BC0EDE4F0E08C819D81892F992780833A
:1014A000ECE4F0E08C81808389810F900F900F90A5
:1014B0000F900F90CF91DF910895DF93CF9300D0DD
:1014C00000D00F92CDB7DEB79B838A837D836C8378
:1014D00081E089838A819B81009721F08C819D81A5
:1014E000009711F419821AC0ECE4F0E08081882F93
:1014F00090E0EC81FD8191838083EC81FD812081EE
:101500003181EDE4F0E08081882F90E0982F8827EA
:10151000822B932BEC81FD819183808389810F90B5
:101520000F900F900F900F90CF91DF910895DF9360
:10153000CF9300D000D00F92CDB7DEB79B838A83C4
:1015400081E08983EA81FB8182818F70282F30E0DE
:101550003D832C838C819D818730910509F474C073
:101560002C813D81283031052CF58C819D81833083
:10157000910509F494C02C813D81243031056CF42F
:101580008C819D818130910509F479C02C813D8148
:101590002230310509F47BC0ADC08C819D8185303E
:1015A000910509F43FC02C813D81263031050CF0B6
:1015B00042C028C08C819D818B30910509F480C088
:1015C0002C813D812C3031056CF48C819D818930DA
:1015D000910509F486C02C813D812A3031050CF03B
:1015E00066C077C08C819D818E309105B1F12C81D0
:1015F0003D812F303105D1F18C819D818C30910559
:1016000049F078C0EFE4F0E01082EEE4F0E088E129
:10161000808376C0EFE4F0E01082EEE4F0E088E052
:1016200080836EC0EFE4F0E081E08083EEE4F0E0E0
:1016300088E0808365C0EFE4F0E082E08083EEE440
:10164000F0E088E080835CC0EFE4F0E083E080833A
:10165000EEE4F0E088E0808353C0EFE4F0E082E065
:101660008083EEE4F0E088E180834AC0EFE4F0E0BC
:1016700083E08083EEE4F0E088E1808341C0EFE422
:10168000F0E081E08083EEE4F0E0108239C0EFE426
:10169000F0E082E08083EEE4F0E0108231C0EFE41D
:1016A000F0E083E08083EEE4F0E0108229C0EFE414
:1016B000F0E082E08083EEE4F0E080E1808320C00F
:1016C000EFE4F0E083E08083EEE4F0E080E180830B
:1016D00017C0EFE4F0E01082EEE4F0E080E18083F8
:1016E0000FC0EFE4F0E081E08083EEE4F0E080E121
:1016F000808306C0EFE4F0E01082EEE4F0E01082B8
:1017000089810F900F900F900F900F90CF91DF91E4
:101710000895DF93CF9300D000D000D0CDB7DEB7CF
:101720009A838983E981FA8182818071882309F013
:1017300083C0E981FA818281829586958770282FFE
:1017400030E03E832D838D819E8182309105C1F1F1
:101750002D813E812330310554F48D819E81009787
:1017600089F02D813E8121303105D9F056C08D811F
:101770009E818330910599F12D813E812430310580
:10178000E9F14BC0AEE4B0E0EEE4F0E080818160CE
:101790008C93AEE4B0E0EEE4F0E08081897F8C933E
:1017A00096C0AEE4B0E0EEE4F0E080818A7F8C93F6
:1017B000AEE4B0E0EEE4F0E0808182608C9387C01C
:1017C000AEE4B0E0EEE4F0E0808183608C93AEE4C0
:1017D000B0E0EEE4F0E080818B7F8C9378C0AEE4E3
:1017E000B0E0EEE4F0E080818C7F8C93AEE4B0E07A
:1017F000EEE4F0E0808184608C9369C0AEE4B0E0F8
:10180000EEE4F0E0808185608C93AEE4B0E0EEE43D
:10181000F0E080818D7F8C935AC0AEE4B0E0EEE4BE
:10182000F0E0808181608C93AEE4B0E0EEE4F0E023
:101830008081897F8C934BC0E981FA81828180719C
:101840008823B9F1E981FA8183818170282F30E002
:101850003C832B838B819C81009769F02B813C8199
:1018600021303105B9F4AEE4B0E0EEE4F0E080817F
:1018700087608C9316C0AEE4B0E0EEE4F0E08081C7
:101880008E7F8C93AEE4B0E0EEE4F0E08081866081
:101890008C9307C0AEE4B0E0EEE4F0E080818760B6
:1018A0008C93A7E3B0E0E7E3F0E080818D7F8C9339
:1018B0000EC0AEE4B0E0EEE4F0E0808181608C9395
:1018C000AEE4B0E0EEE4F0E08081897F8C93269670
:1018D0000FB6F894DEBF0FBECDBFCF91DF91089554
:1018E0001F920F920FB60F9211242F933F934F9395
:1018F0005F936F937F938F939F93AF93BF93EF9378
:10190000FF93DF93CF93CDB7DEB78091860290919E
:101910008702009729F0E0918602F09187020995ED
:10192000CF91DF91FF91EF91BF91AF919F918F91F7
:101930007F916F915F914F913F912F910F900FBECB
:101940000F901F901895DF93CF9300D00F92CDB7D3
:10195000DEB79B838A8381E089838A819B8100979C
:1019600011F419826EC081E08983EA81FB81808154
:101970008074882389F5EA81FB8180818770882FB4
:1019800090E0880F991FFC01EC5CFD4FA081B181B4
:10199000EA81FB8180818770882F90E0880F991FF2
:1019A000FC01EC5CFD4F0190F081E02D4081EA816B
:1019B000FB8180818695869586958770282F30E0FB
:1019C00081E090E0022E02C0880F991F0A94E2F78E
:1019D000809584238C9335C0EA81FB81808180745B
:1019E000882379F1EA81FB8180818770882F90E0DC
:1019F000880F991FFC01EC5CFD4FA081B181EA8149
:101A0000FB8180818770882F90E0880F991FFC01EF
:101A1000EC5CFD4F0190F081E02D4081EA81FB817B
:101A200080818695869586958770282F30E081E0A5
:101A300090E0022E02C0880F991F0A94E2F7842BCF
:101A40008C9389810F900F900F90CF91DF91089523
:101A5000DF93CF9300D00F92CDB7DEB79B838A83FD
:101A600081E089838A819B81009711F4198212C0D9
:101A70008A819B810E94A30C8983EA81FB818081FA
:101A8000881F8827881F282F8A819B81622F0E94A8
:101A9000920D898389810F900F900F90CF91DF91E4
:101AA0000895DF93CF9300D000D00F92CDB7DEB76B
:101AB0009B838A837D836C8381E089838A819B8178
:101AC000009711F4198225C0EA81FB81808187701B
:101AD000882F90E0880F991FFC01EC5CFD4F01906E
:101AE000F081E02D8081282F30E0EA81FB81808128
:101AF0008695869586958770882F90E0A90102C00B
:101B0000559547958A95E2F7CA018170EC81FD8170
:101B1000808389810F900F900F900F900F90CF913D
:101B2000DF910895DF93CF9300D000D0CDB7DEB71B
:101B30009B838A836C8381E089838A819B81009760
:101B400011F4198266C08C81813081F5EA81FB81B4
:101B500080818770882F90E0880F991FFC01E45CDA
:101B6000FD4FA081B181EA81FB8180818770882F40
:101B700090E0880F991FFC01E45CFD4F0190F0811B
:101B8000E02D4081EA81FB8180818695869586954E
:101B90008770282F30E081E090E0022E02C0880F8D
:101BA000991F0A94E2F7842B8C9333C08C8188238D
:101BB00081F5EA81FB8180818770882F90E0880F12
:101BC000991FFC01E45CFD4FA081B181EA81FB819A
:101BD00080818770882F90E0880F991FFC01E45C5A
:101BE000FD4F0190F081E02D4081EA81FB818081F1
:101BF0008695869586958770282F30E081E090E065
:101C0000022E02C0880F991F0A94E2F78095842360
:101C10008C9389810F900F900F900F90CF91DF914F
:101C20000895DF93CF9300D000D00F92CDB7DEB7E9
:101C30009B838A837D836C8381E089838A819B81F6
:101C4000009711F4198225C0EA81FB818081877099
:101C5000882F90E0880F991FFC01EC5BFD4F0190ED
:101C6000F081E02D8081282F30E0EA81FB818081A6
:101C70008695869586958770882F90E0A90102C089
:101C8000559547958A95E2F7CA018170EC81FD81EF
:101C9000808389810F900F900F900F900F90CF91BC
:101CA000DF910895DF93CF9300D00F92CDB7DEB7C9
:101CB0009B838A8381E089838A819B81009711F4C9
:101CC00019822FC0EA81FB8180818770882F90E084
:101CD000880F991FFC01E45CFD4FA081B181EA816E
:101CE000FB8180818770882F90E0880F991FFC010D
:101CF000E45CFD4F0190F081E02D4081EA81FB81A1
:101D000080818695869586958770282F30E081E0C2
:101D100090E0022E02C0880F991F0A94E2F78427F0
:101D20008C9389810F900F900F90CF91DF91089540
:101D3000DF93CF9300D00F92CDB7DEB79B838A831A
:101D400081E089838A819B81009711F4198265C0A3
:101D5000EA81FB8180818770882F90E0880F991F2E
:101D6000FC01EC5CFD4FA081B181EA81FB818081A7
:101D70008770882F90E0880F991FFC01EC5CFD4F65
:101D80000190F081E02D4081EA81FB818081869580
:101D9000869586958770282F30E081E090E002C01C
:101DA000880F991F2A95E2F7809584238C93EA8106
:101DB000FB8180818770882F90E0880F991FFC013C
:101DC000E45CFD4FA081B181EA81FB818081877055
:101DD000882F90E0880F991FFC01E45CFD4F019073
:101DE000F081E02D4081EA81FB8180818695869596
:101DF00086958770282F30E081E090E0022E02C0A7
:101E0000880F991F0A94E2F7842B8C93A0E5B0E029
:101E1000E0E5F0E080818B7F8C9389810F900F90BB
:101E20000F90CF91DF910895DF93CF9300D00F9261
:101E3000CDB7DEB79B838A8381E089838A819B81CA
:101E4000009711F4198230C0EA81FB81808187708C
:101E5000882F90E0880F991FFC01E45CFD4FA08162
:101E6000B181EA81FB8180818770882F90E0880FA3
:101E7000991FFC01E45CFD4F0190F081E02D408151
:101E8000EA81FB8180818695869586958770282FCB
:101E900030E081E090E0022E02C0880F991F0A9482
:101EA000E2F7809584238C9389810F900F900F9097
:101EB000CF91DF910895DF93CF9300D00F92CDB7EC
:101EC000DEB78A836B8381E089838A81843010F056
:101ED00019820DC08A81882F90E0880F991FFC011C
:101EE000EC5CFD4F0190F081E02D8B818083898136
:101EF0000F900F900F90CF91DF910895DF93CF93C4
:101F000000D000D0CDB7DEB78A836B834C8381E0ED
:101F100089838A81843010F019821AC08A81882FBF
:101F200090E0880F991FFC01EC5CFD4F0190F0815F
:101F3000E02D8B8180838A81882F90E0880F991F04
:101F4000FC01E45CFD4F0190F081E02D8C818083E9
:101F500089810F900F900F900F90CF91DF9108958E
:101F6000DF93CF9300D000D0CDB7DEB78A837C83D8
:101F70006B8381E089838A81843010F019820FC0DD
:101F80008A81882F90E0880F991FFC01EC5CFD4F3F
:101F90000190F081E02D8081EB81FC81808389813B
:101FA0000F900F900F900F90CF91DF910895DF93D6
:101FB000CF9300D00F92CDB7DEB78A836B8381E0D9
:101FC00089838A81843010F019820DC08A81882F1C
:101FD00090E0880F991FFC01E45CFD4F0190F081B7
:101FE000E02D8B81808389810F900F900F90CF918E
:101FF000DF910895DF93CF9300D000D0CDB7DEB747
:102000008A837C836B8381E089838A81843010F0AA
:1020100019820FC08A81882F90E0880F991FFC01D8
:10202000EC5BFD4F0190F081E02D8081EB81FC8124
:10203000808389810F900F900F900F90CF91DF9147
:102040000895DF93CF9300D0CDB7DEB78A8381E0C8
:1020500089838A81843010F0198218C08A81882F80
:1020600090E0880F991FFC01E45CFD4FA081B181D5
:102070008A81882F90E0880F991FFC01E45CFD4F56
:102080000190F081E02D808180958C9389810F9063
:102090000F90CF91DF910895DF93CF9300D000D0C0
:1020A000CDB7DEB78A8381E089838A81843010F0DE
:1020B000198238C08A81882F90E0880F991FFC010F
:1020C000EC5CFD4F0190F081E02D80818A81882FAA
:1020D00090E0880F991FFC01EC5CFD4F0190F081AE
:1020E000E02D10828A81882F90E0880F991FFC01D3
:1020F000E45CFD4F0190F081E02D80818A81882F82
:1021000090E0880F991FFC01E45CFD4F0190F08185
:10211000E02D8FEF8083A0E5B0E0E0E5F0E0808186
:102120008B7F8C9389810F900F900F900F90CF91A0
:10213000DF910895DF93CF9300D0CDB7DEB78A83C8
:1021400081E089838A81843010F019820CC08A81F1
:10215000882F90E0880F991FFC01E45CFD4F0190EF
:10216000F081E02D108289810F900F90CF91DF9147
:102170000895DF93CF93CDB7DEB78CE492E00E9451
:1021800017078093570280915702CF91DF910895EE
:10219000DF93CF93CDB7DEB7E8970FB6F894DEBFE5
:1021A0000FBECDBF98AF8FAB1EAA1DAA8FA998AD49
:1021B000009711F41EAA04C28FA998AD0E94280DA1
:1021C0008EAB8FA998AD01960E94280D8EAB1DAAEB
:1021D00010C08FA998AD9C012E5F3F4F8DA9882F0D
:1021E00090E0820F931F0E94280D8EAB8DA98F5F08
:1021F0008DAB8DA9843068F380E090E0A0EAB1E473
:1022000089AB9AABABABBCAB69A97AA98BA99CA9EA
:1022100020E030E04AEF54E40E941F02DC01CB01D1
:102220008DA79EA7AFA7B8AB6DA57EA58FA598A9D2
:1022300020E030E040E85FE30E94250488232CF48E
:1022400081E090E09CA78BA73FC06DA57EA58FA5E0
:1022500098A920E03FEF4FE757E40E94C503181606
:102260004CF569A97AA98BA99CA920E030E040E24D
:1022700051E40E941F02DC01CB01BC01CD010E9490
:102280004900DC01CB019CA78BA70FC088EC90E034
:102290009AA789A789A59AA50197F1F79AA789A76F
:1022A0008BA59CA501979CA78BA78BA59CA50097A8
:1022B00069F714C06DA57EA58FA598A90E94490055
:1022C000DC01CB019CA78BA78BA59CA598A78FA30E
:1022D0008FA198A50197F1F798A78FA38FA998AD23
:1022E00068E30E94EA128EAB80E090E0A0EAB0E4DE
:1022F0008BA39CA3ADA3BEA36BA17CA18DA19EA12A
:1023000020E030E04AEF54E40E941F02DC01CB01E0
:102310008F8F98A3A9A3BAA36F8D78A189A19AA141
:1023200020E030E040E85FE30E94250488232CF49D
:1023300081E090E09E8F8D8F3FC06F8D78A189A145
:102340009AA120E03FEF4FE757E40E94C50318161B
:102350004CF56BA17CA18DA19EA120E030E040E274
:1023600051E40E941F02DC01CB01BC01CD010E949F
:102370004900DC01CB019E8F8D8F0FC088EC90E06F
:102380009C8F8B8F8B8D9C8D0197F1F79C8F8B8F02
:102390008D8D9E8D01979E8F8D8F8D8D9E8D00973B
:1023A00069F714C06F8D78A189A19AA10E94490094
:1023B000DC01CB019E8F8D8F8D8D9E8D9A8F898FA5
:1023C000898D9A8D0197F1F79A8F898F8FA998AD92
:1023D00068E30E94EA128EAB80E090E0A6E1B3E4ED
:1023E0008D8B9E8BAF8BB88F6D897E898F89988DF1
:1023F0002BEA3AEA4AE250E40E941F02DC01CB01D8
:10240000898B9A8BAB8BBC8B69897A898B899C89E8
:1024100020E030E040E85FE30E94250488231CF4BC
:1024200081E0888B91C069897A898B899C8920E0B9
:1024300030E04FE753E40E94C50318160CF07BC050
:102440006D897E898F89988D20E030E04AE754E4D9
:102450000E941903DC01CB018C879D87AE87BF8763
:102460006C857D858E859F8520E030E04AEF54E4C1
:102470000E941F02DC01CB0188879987AA87BB874E
:10248000688579858A859B8520E030E040E85FE3B8
:102490000E94250488232CF481E090E09F838E83A2
:1024A0003FC0688579858A859B8520E03FEF4FE7AF
:1024B00057E40E94C50318164CF56C857D858E8502
:1024C0009F8520E030E040E251E40E941F02DC01E1
:1024D000CB01BC01CD010E944900DC01CB019F83EF
:1024E0008E830FC088EC90E09D838C838C819D81CE
:1024F0000197F1F79D838C838E819F8101979F8344
:102500008E838E819F81009769F724C068857985C5
:102510008A859B850E944900DC01CB019F838E83C5
:102520008E819F819B838A838A819B810197F1F7AA
:102530009B838A830FC069897A898B899C890E94D1
:102540004900DC01CB01888B8889898389818A9540
:10255000F1F789838FA998AD68E30E94EA128EABE8
:102560008FA998AD62E00E9461168EAB8FA998ADDD
:1025700068E00E94EA128EAB8FA998AD61E00E94DC
:10258000EA128EAB8FA998AD62E00E94EA128EAB80
:102590008FA998AD66E00E94EA128EAB8FA998AD24
:1025A0006CE00E94EA128EAB8FA998AD60E80E94A1
:1025B000EA128EAB8FA998AD68E20E94EA128EAB48
:1025C0008EA9E8960FB6F894DEBF0FBECDBFCF91AF
:1025D000DF910895DF93CF9300D000D0CDB7DEB761
:1025E0009B838A836C8319828A819B81009711F473
:1025F000198220C08A819B8160E00E94920D8983AC
:102600008C81282F22952F708A819B81622F0E94B6
:10261000611689838A819B810E949D1689838A81A4
:102620009B816C810E94611689838A819B810E94B3
:102630009D16898389810F900F900F900F90CF91F5
:10264000DF910895DF93CF9300D000D0CDB7DEB7F0
:102650009B838A836C8319828A819B81009711F402
:10266000198220C08A819B8161E00E94920D89833A
:102670008C81282F22952F708A819B81622F0E9446
:10268000611689838A819B810E949D1689838A8134
:102690009B816C810E94611689838A819B810E9443
:1026A0009D16898389810F900F900F900F90CF9185
:1026B000DF910895DF93CF9300D000D000D0CDB745
:1026C000DEB79B838A836C834D832E8319828A8134
:1026D0009B81009711F419820DC08A819B816C81C6
:1026E0004D810E94EE1589838A819B816E810E94B3
:1026F00022138983898126960FB6F894DEBF0FBE18
:10270000CDBFCF91DF910895DF93CF9300D000D05C
:1027100000D0CDB7DEB79C838B837E836D831A8216
:1027200019828B819C810097A1F41A821DC0898136
:10273000282F30E08D819E81FC01E20FF31F208164
:102740008B819C81622F0E9422138A8389818F5FF3
:1027500089838981282F30E08D819E81FC01E20FE1
:10276000F31F8081882319F78A8126960FB6F89483
:10277000DEBF0FBECDBFCF91DF910895DF93CF9322
:10278000CDB7DEB728970FB6F894DEBF0FBECDBF2A
:102790009C838B836D834E8338872F831A821982A3
:1027A0008B819C81009721F08F819885009711F48F
:1027B0001A8225C08B819C816D814E810E94EE150D
:1027C0008A8312C08981282F30E08F819885FC018F
:1027D000E20FF31F20818B819C81622F0E942213C4
:1027E0008A8389818F5F89838981282F30E08F8157
:1027F0009885FC01E20FF31F8081882319F78A81F5
:1028000028960FB6F894DEBF0FBECDBFCF91DF91F3
:1028100008950F93DF93CF93CDB7DEB729970FB607
:10282000F894DEBF0FBECDBF9C838B836D834E8338
:1028300038872F8309871A8219828B819C810097A0
:1028400011F41A8230C08985882F90E00896880F8D
:10285000991F880F991F880F991F282F8B819C81A2
:10286000622F0E94EA128A83198212C08981282F5E
:1028700030E08F819885FC01E20FF31F20818B816E
:102880009C81622F0E9422138A8389818F5F8983B2
:102890008981883058F38B819C816D814E81298597
:1028A0000E945A138A838A8129960FB6F894DEBF54
:1028B0000FBECDBFCF91DF910F910895DF93CF93DE
:1028C00000D000D000D0CDB7DEB79B838A836C8365
:1028D0004D8319820DC02A813B818981882F90E028
:1028E000F901E80FF91F8C81808389818F5F8983CB
:1028F0008D818E838E81882311F081E08E838E817D
:102900009D8191509D83882331F78A819B812696F2
:102910000FB6F894DEBF0FBECDBFCF91DF91089503
:10292000DF93CF9300D000D000D0CDB7DEB78C833B
:102930007E836D831B821A8284E689838D819E81CA
:10294000009711F41B8239C081E08B838D819E81B9
:1029500060E044E00E945E149E838D838C81882316
:1029600049F5ED81FE8180E3808327C08C819981C8
:10297000692F0E94F41C8823B9F08A81282F30E047
:102980008D819E81FC01E20FF31F8C819981692F5B
:102990000E94F41C9AE0692F0E94F41C892F805D2C
:1029A00080838A818F5F8A8389819AE0692F0E9460
:1029B000F41C898389818823C9F68B8126960FB6FA
:1029C000F894DEBF0FBECDBFCF91DF910895DF93A6
:1029D000CF93CDB7DEB728970FB6F894DEBF0FBE02
:1029E000CDBF9E838D8378876F831C821B8280E19D
:1029F00097E29A8389838F819885009711F41C82CE
:102A00004AC081E08C838F81988560E245E00E9416
:102A10005E1498878F838F819885FC01359610828C
:102A20008D819E81009799F5EF81F88580E3808301
:102A300032C08D819E8129813A81B9010E94001D99
:102A4000CB010097D1F08B81282F30E08F819885C2
:102A5000FC01E20FF31F8D819E8129813A81B9012A
:102A60000E94001DCB012AE030E0B9010E94001D48
:102A7000805D80838B818F5F8B8389819A812AE03F
:102A800030E0B9010E94001DCB019A8389838981BE
:102A90009A81009771F68C8128960FB6F894DEBF64
:102AA0000FBECDBFCF91DF9108950F931F93DF939A
:102AB000CF93CDB7DEB72C970FB6F894DEBF0FBE1D
:102AC000CDBF6F83788789879A875C874B871E8203
:102AD0001D8280E09AECAAE9BBE389839A83AB83E9
:102AE000BC838B859C85009711F41E826BC081E0AE
:102AF0008E838B859C8560E04BE00E945E149C87F2
:102B00008B878F819885A985BA850097A105B10526
:102B100009F04FC0EB85FC8580E3808353C08F8133
:102B20009885A985BA8529813A814B815C81BC0150
:102B3000CD010E94141DDA01C9010097A105B1055C
:102B400031F18D81282F30E08B859C858C01020F1F
:102B5000131F8F819885A985BA8529813A814B8178
:102B60005C81BC01CD010E94141DDA01C9012AE07B
:102B700030E040E050E0BC01CD010E94141DDC01BA
:102B8000CB01805DF80180838D818F5F8D8389818A
:102B90009A81AB81BC812AE030E040E050E0BC018A
:102BA000CD010E94141DDA01C90189839A83AB8388
:102BB000BC8389819A81AB81BC810097A105B10555
:102BC00009F0ADCF8E812C960FB6F894DEBF0FBE04
:102BD000CDBFCF91DF911F910F910895DF93CF93D8
:102BE000CDB7DEB72B970FB6F894DEBF0FBECDBFC3
:102BF0009F838E836887498781E08D838985815093
:102C000089871C8280E48B8384E18A8384E58983BD
:102C10008885282F30E03B872A878A859B858230EC
:102C2000910511F12A853B852330310534F48A85DD
:102C30009B858130910561F03AC02A853B85233020
:102C40003105F1F08A859B858430910529F12FC0EB
:102C50009C818985890F282F20588E819F81622F22
:102C60000E94EA128D8323C09B818985890F282FBA
:102C700020588E819F81622F0E94EA128D8317C097
:102C80009A818985890F282F20588E819F81622FF4
:102C90000E94EA128D830BC099818985890F282FA4
:102CA00020588E819F81622F0E94EA128D838D8130
:102CB0002B960FB6F894DEBF0FBECDBFCF91DF913C
:102CC0000895DF93CF9300D000D00F92CDB7DEB739
:102CD0009C838B836D831A821982198222C08B8117
:102CE0009C819C012E5F3F4F8981882F90E0A90134
:102CF000480F591F8D81282F30E08981882F90E05F
:102D0000B90102C0759567958A95E2F7CB01282F26
:102D10002170CA01622F0E94920D8A8389818F5F80
:102D2000898389818430D8F28A810F900F900F9027
:102D30000F900F90CF91DF910895DF93CF93CDB790
:102D4000DEB76B970FB6F894DEBF0FBECDBF9B8F7B
:102D50008A8F81E0898F8A8D9B8D019661E00E9428
:102D6000920D898F80E090E0A0EAB0E48D8B9E8B7D
:102D7000AF8BB88F6D897E898F89988D2BEA3AEA5F
:102D80004AE250E40E941F02DC01CB01898B9A8B3E
:102D9000AB8BBC8B69897A898B899C8920E030E078
:102DA00040E85FE30E94250488231CF481E0888BBF
:102DB00091C069897A898B899C8920E030E04FE74E
:102DC00053E40E94C50318160CF07BC06D897E8900
:102DD0008F89988D20E030E04AE754E40E9419037F
:102DE000DC01CB018C879D87AE87BF876C857D8595
:102DF0008E859F8520E030E04AEF54E40E941F0258
:102E0000DC01CB0188879987AA87BB87688579858C
:102E10008A859B8520E030E040E85FE30E9425043E
:102E200088232CF481E090E09F838E833FC06885E7
:102E300079858A859B8520E03FEF4FE757E40E9424
:102E4000C50318164CF56C857D858E859F8520E021
:102E500030E040E251E40E941F02DC01CB01BC01E2
:102E6000CD010E944900DC01CB019F838E830FC0FE
:102E700088EC90E09D838C838C819D810197F1F794
:102E80009D838C838E819F8101979F838E838E810A
:102E90009F81009769F724C0688579858A859B851D
:102EA0000E944900DC01CB019F838E838E819F812C
:102EB0009B838A838A819B810197F1F79B838A8315
:102EC0000FC069897A898B899C890E944900DC013D
:102ED000CB01888B8889898389818A95F1F78983D9
:102EE0008A8D9B8D019660E00E94920D898F898D5D
:102EF0006B960FB6F894DEBF0FBECDBFCF91DF91BA
:102F00000895DF93CF9300D000D00F92CDB7DEB7F6
:102F10009D838C831B821A8219828C819D810097EC
:102F200011F41B822AC01A8210C08C819D819C01E1
:102F30002F5F3F4F8A81882F90E0820F931F0E945E
:102F4000280D8B838A818F5F8A838A81843068F31E
:102F5000198210C08C819D819C012B5F3F4F89811C
:102F6000882F90E0820F931F0E94A30C8B8389818E
:102F70008F5F89838981843068F38B810F900F90F4
:102F80000F900F900F90CF91DF910895DF93CF9323
:102F9000CDB7DEB76D970FB6F894DEBF0FBECDBFCD
:102FA0009E8B8D8B788F6F8B1A8A198A188A1F8651
:102FB0001C8A8D899E89009721F08F89988D0097B2
:102FC00021F41B8A2B89298F30C1198A29C11F86B8
:102FD0002AC0ED89FE898081882379F48D899E89B4
:102FE0009C012F5F3F4F8F85882F90E0820F931FAA
:102FF00060E00E94920D8A8B13C0ED89FE8980816A
:10300000813071F48D899E899C012F5F3F4F8F85A0
:10301000882F90E0820F931F61E00E94920D8A8BAF
:103020008F858F5F8F878F85843098F2ED89FE8939
:103030008081882379F48D899E899C012F5F3F4F81
:103040008989882F90E0820F931F61E00E94920D82
:103050008A8B13C0ED89FE898081813071F48D895E
:103060009E899C012F5F3F4F8989882F90E0820FB6
:10307000931F60E00E94920D8A8B80E090E0A0E2B6
:10308000B1E48B879C87AD87BE876B857C858D85FA
:103090009E8520E030E04AEF54E40E941F02DC01EC
:1030A000CB018F839887A987BA876F8178858985B7
:1030B0009A8520E030E040E85FE30E942504882301
:1030C0002CF481E090E09E838D833FC06F817885F2
:1030D00089859A8520E03FEF4FE757E40E94C503BA
:1030E00018164CF56B857C858D859E8520E030E03B
:1030F00040E251E40E941F02DC01CB01BC01CD0182
:103100000E944900DC01CB019E838D830FC088ECB7
:1031100090E09C838B838B819C810197F1F79C834A
:103120008B838D819E8101979E838D838D819E816E
:10313000009769F714C06F81788589859A850E9408
:103140004900DC01CB019E838D838D819E819A8312
:10315000898389819A810197F1F79A838983188AF3
:1031600058C08D899E899C012B5F3F4F8889882F8D
:1031700090E0820F931F9E012C5E3F4FB9010E9489
:10318000110E8A8B8C89282F30E03D8F2C8FED8992
:10319000FE8980811B8E1A8E882321F481E090E0C5
:1031A0009B8F8A8F2C8D3D8D8A8D9B8D281739079B
:1031B00069F58989482F50E08889282F30E0CA01B5
:1031C000880F991F880F991F820F931FFC01E959DF
:1031D000FD4F8081EF89F88D808381E08B8B8D8915
:1031E0009E899C012B5F3F4F8889882F90E0820F3A
:1031F000931F9E012C5E3F4FB9010E94110E8A8BD6
:103200008C89813061F39B89998F0FC088898F5F8A
:10321000888B8889843008F4A4CF89898F5F898B53
:103220008989843008F4D3CED0CE898D6D960FB6BF
:10323000F894DEBF0FBECDBFCF91DF910895DF932D
:10324000CF93CDB7DEB780E892E00E94C81080939C
:10325000570287E792E00E9481178093570280917E
:103260005702CF91DF910895DF93CF93CDB7DEB7AB
:103270000E94C81980E00E946C07809357028CE47A
:1032800092E028E832E0B9010E949E07809357023D
:1032900080918802882351F480E892E020E630E0B3
:1032A00062E041E00E94BE13809357020E94BA1B65
:1032B0001092930287E792E023E932E0B9010E947D
:1032C000C6178093570280919302813398F38091BF
:1032D0009302833378F7809193028093890280E888
:1032E00092E061E00E94EA128093570280E892E047
:1032F00024E730E061E041E00E94BE138093570272
:103300008AEA0E946C0780935702109293020E94EF
:10331000E61B8AE892E00E94E3078093570283E26B
:103320000E946C07809357028091920281500E9404
:103330006C07809357028CE492E028E832E0B901F0
:103340000E949E078093570280918802803A31F450
:1033500086E0809358020E94CD1CA8CF80918802FD
:10336000813A09F0A3CF809189020E946C07809373
:10337000570280918902813319F40E941F1C96CF55
:1033800080918902823309F091CF0E947A1C8ECFFE
:10339000DF93CF93CDB7DEB70E941F1980935702FA
:1033A0000E94B91080935702CF91DF910895DF9367
:1033B000CF93CDB7DEB780915802815080935802E9
:1033C00080915802882331F483E692E00E94120A29
:1033D0008093570283E692E06EEE75E80E94360A0B
:1033E00080935702CF91DF910895DF93CF93CDB7AC
:1033F000DEB780E892E061E00E94EA128093570213
:1034000080E892E021E830E061E041E00E94BE13F4
:103410008093570280919402882359F480E892E0C7
:1034200020E930E062E044E00E94BE13809357023E
:103430000EC080919402813051F480E892E021EA3C
:1034400030E062E044E00E94BE1380935702CF91C7
:10345000DF910895DF93CF93CDB7DEB76C970FB6AA
:10346000F894DEBF0FBECDBF80E892E061E00E941D
:10347000EA128093570280E892E021E830E061E0B0
:1034800041E00E94BE138093570280E892E022EB55
:1034900030E062E041E00E94BE1380935702FFC01B
:1034A00080E892E025EC30E063E049E00E94BE1342
:1034B0008093570280E090E0AAE7B3E4898F9A8F67
:1034C000AB8FBC8F698D7A8D8B8D9C8D20E030E029
:1034D0004AEF54E40E941F02DC01CB018D8B9E8BCE
:1034E000AF8BB88F6D897E898F89988D20E030E011
:1034F00040E85FE30E94250488232CF481E090E0FB
:103500009C8B8B8B3FC06D897E898F89988D20E045
:103510003FEF4FE757E40E94C50318164CF5698D3D
:103520007A8D8B8D9C8D20E030E040E251E40E944A
:103530001F02DC01CB01BC01CD010E944900DC016E
:10354000CB019C8B8B8B0FC088EC90E09A8B898B86
:1035500089899A890197F1F79A8B898B8B899C8944
:1035600001979C8B8B8B8B899C89009769F714C082
:103570006D897E898F89988D0E944900DC01CB017D
:103580009C8B8B8B8B899C89988B8F878F85988957
:103590000197F1F7988B8F8780E892E064E90E94A9
:1035A000EA128093570280E892E02EEC30E063E06C
:1035B00049E00E94BE138093570280E090E0AAE7A2
:1035C000B3E48B879C87AD87BE876B857C858D85B3
:1035D0009E8520E030E04AEF54E40E941F02DC01A7
:1035E000CB018F839887A987BA876F817885898572
:1035F0009A8520E030E040E85FE30E9425048823BC
:103600002CF481E090E09E838D833FC06F817885AC
:1036100089859A8520E03FEF4FE757E40E94C50374
:1036200018164CF56B857C858D859E8520E030E0F5
:1036300040E251E40E941F02DC01CB01BC01CD013C
:103640000E944900DC01CB019E838D830FC088EC72
:1036500090E09C838B838B819C810197F1F79C8305
:103660008B838D819E8101979E838D838D819E8129
:10367000009769F714C06F81788589859A850E94C3
:103680004900DC01CB019E838D838D819E819A83CD
:10369000898389819A810197F1F79A83898380913F
:1036A0005802882309F0FCCE6C960FB6F894DEBF62
:1036B0000FBECDBFCF91DF910895DF93CF93CDB7EC
:1036C000DEB780E892E061E00E94EA128093570240
:1036D00080E892E021E830E061E041E00E94BE1322
:1036E0008093570280E892E027ED30E062E041E00D
:1036F0000E94BE138093570280E892E06AE90E941C
:10370000EA128093570210929202109293028091D3
:1037100092028F5F8093920287E792E023E932E082
:10372000B9010E94C6178093570280E892E06AE2CE
:103730000E94221380935702809193028D3379F077
:1037400080919202893058F480919202882F90E003
:10375000019720919302FC01E657FD4F2083809151
:1037600093028D3321F080919202883080F2CF91C4
:10377000DF910895DF93CF93CDB7DEB780E892E075
:1037800061E00E94EA128093570280E892E021E80B
:1037900030E061E041E00E94BE138093570280E870
:1037A00092E02AEE30E062E041E00E94BE13809396
:1037B000570280E892E02BEF30E063E041E00E94A6
:1037C000BE1380935702CF91DF910895DF93CF937B
:1037D000CDB7DEB710929202809192028F5F8093F4
:1037E000920287E792E023E932E0B9010E94C6170E
:1037F0008093570280E892E06AE20E94221380934D
:103800005702809193028D3379F080919202893032
:1038100058F480919202882F90E0019720919302B2
:10382000FC01E657FD4F2083809193028D3321F0F8
:1038300080919202883080F2CF91DF910895DF93DA
:10384000CF93CDB7DEB71092940283E080935802F5
:1038500083E692E06EEE75E80E94360A8093570286
:1038600083E692E00E94D709809357020E94F519DF
:10387000809158028823E1F781E08093580283E623
:1038800092E06EEE75E80E94360A8093570283E656
:1038900092E00E94D70980935702809158028823B2
:1038A000E1F783E692E00E94120A8093570281E0DA
:1038B0008093940283E08093580283E692E06EEE58
:1038C00075E80E94360A8093570283E692E00E94D0
:1038D000D709809357020E94F519809158028823D6
:1038E000E1F783E692E00E94120A80935702CF919B
:1038F000DF910895DF93CF93CDB7DEB70E945D1BB4
:103900000E945D1B8AE892E00E94E30780935702C1
:1039100083E20E946C07809357028091920281504B
:103920000E946C078093570283E08093580283E6DD
:1039300092E06EEE75E80E94360A8093570283E6A5
:1039400092E00E94D7098093570280E892E061E0FC
:103950000E94EA128093570280E892E02EE031E064
:1039600062E041E00E94BE138093570280E892E03B
:103970002FE131E063E041E00E94BE1380935702E3
:10398000809158028823E1F783E692E00E94120AB0
:1039900080935702CF91DF910895DF93CF93CDB7F6
:1039A000DEB783E692E00E94120A8093570283E614
:1039B00092E06EEE75E80E94360A8093570283E625
:1039C00092E00E94D709809357020E942A1A8091A0
:1039D00058028823E1F783E692E00E94120A80935E
:1039E0005702CF91DF910895991B79E004C0991F88
:1039F000961708F0961B881F7A95C9F78095089549
:103A0000AA1BBB1B51E107C0AA1FBB1FA617B70704
:103A100010F0A61BB70B881F991F5A95A9F7809520
:103A20009095BC01CD010895A1E21A2EAA1BBB1BE3
:103A3000FD010DC0AA1FBB1FEE1FFF1FA217B3077A
:103A4000E407F50720F0A21BB30BE40BF50B661F90
:103A5000771F881F991F1A9469F760957095809554
:103A600090959B01AC01BD01CF0108952F923F922B
:103A70004F925F926F927F928F929F92AF92BF927E
:103A8000CF92DF92EF92FF920F931F93CF93DF932A
:103A9000CDB7DEB7CA1BDB0B0FB6F894DEBF0FBE87
:103AA000CDBF09942A88398848885F846E847D84D4
:103AB0008C849B84AA84B984C884DF80EE80FD80D6
:103AC0000C811B81AA81B981CE0FD11D0FB6F8944C
:0E3AD000DEBF0FBECDBFED010895F894FFCF0D
:103ADE005379732E2050617373776F72643D20306B
:103AEE0030303000456E74657220706173733A2009
:103AFE0000446F6F72204C6F636B205379732E00EE
:103B0E00446F6F72206973206F70656E696E6721E6
:103B1E0000446F6F7220697320636C6F73696E67F8
:103B2E002100496E76616C69642050617373776F02
:103B3E007264212100416C61726D202121002020D0
:103B4E0020202020202000456E746572206E65773F
:103B5E002050617373776F726400312D204F706542
:103B6E006E2054686520446F6F7200322D204368BA
:103B7E00616E67652050617373776F726400706158
:103B8E007373776F7264206368616E676564005348
:103B9E0075636365737366756C6C79000000000065
:103BAE0000000000000102020303030304040404E6
:103BBE0004040404050505050505050505050505AB
:103BCE00050505050606060606060606060606068B
:103BDE000606060606060606060606060606060677
:103BEE00060606060707070707070707070707075B
:103BFE000707070707070707070707070707070747
:103C0E000707070707070707070707070707070736
:103C1E000707070707070707070707070707070726
:103C2E00070707070808080808080808080808080A
:103C3E0008080808080808080808080808080808F6
:103C4E0008080808080808080808080808080808E6
:103C5E0008080808080808080808080808080808D6
:103C6E0008080808080808080808080808080808C6
:103C7E0008080808080808080808080808080808B6
:103C8E0008080808080808080808080808080808A6
:103C9E000808080808080808080808080808080896
:103CAE00080808083A003700340031003B0038009D
:103CBE0035003200390036003300300000000000BD
:103CCE00850000004B0000010301000800400000C9
:103CDE00010004D71960003738392F3435362A31B0
:103CEE0032332D23303D2B00414951592129313991
:063CFE00424A525A626ABC
:00000001FF
